:400000000010002011000000050200000502000010B500F0FFF8C04670B5134C23688022D20213432360182000F006FA22680F4B134023600E4A0F4B1A6010220E4B1A604E
:40004000802212060D4B1A60002525600C4A0D4B1A600D49092000F0BBF9092000F0ACF90A4B1D6070BDC04600010B40FFFFFBFF0600008004010B400802024008010B4082
:400080001000008000000240490600000C020B4010B572B600240FE01B486200131959000B00411889881A5AC31858880004104300F0A2F80134E4B2012CEDD9EE22120215
:4000C000124B1A609922124B1A6099231B04114A1360114A1360114A117806230B43DBB21370D82252030E4B1A60D82212010D4B1A6002230C4A136031210C4A11600C4A57
:400100001360FFF789FF10BDF80B00000C0001401000014010500F4030500F4000700F40080104400803044000040440080404401804044010B5064C2378002B07D1054B8A
:40014000002B02D0044800E000BF0123237010BD4001002000000000980B0000084B10B5002B03D00749084800E000BF07480368002B00D110BD064B002BFBD09847F9E731
:400180000000000044010020980B0000C00000200000000010B58AB062B600F093F806AB104A13CA13C3190013680B60012000F09DFA0D4A06A901A800F01AFB0B4A06A9A8
:4001C00001A800F015FB0A4A06A901A800F010FB084800F0E5F8052000F00CF9002000F085FAE3E79C0B0000B00B0000C40B0000D80B0000EC0B000010B50A00002100F034
:40020000C3FC10BD10B500F093FC03680C2B00D1FEE7FEE770B50F4E0F4D13E029686B68AC68002202E001C901C30432A242FAD1E868002202E0002102C304328242FAD1F2
:400240001035013E002EE9D100F078FCFFF7A2FFFEE7C046010000008414000010B500230AE0032B03D89A000949505800E009489900094A885001332F2BF2D9FFF708FFD9
:400280008022D205116801230B43136010BDC04600000000050200000000002010B500F06DF810BD10B500F01DF810BD10B5044A1368802109060B431360FFF7EFFF10BD3F
:4002C0000000064010B5064B1B78002B04D1FFF7E9FF0122024B1A70FFF7E8FF10BDC0465C01002010B5134A134B1A600023134A13600121124A1160124A134802600724EA
:4003000012480460124803601248016012490A60124A1360124A1360124A1360124A1360124A1360124A1360124A13601268124B1A8010BD0B000002000006404000064002
:400340004800064007000080000306400403064010030640440006400002064004020640880E0640C80E0640480F0640080F0640C80F0640880F06405E01002005490B682F
:40038000F0229343603A13430B60034B1A88034B1A607047100001405E010020880F064070B50500002402E000F0C0F90134285D0028F9D170BDC0461F2318401E3B834070
:4003C000014A13607047C04600E100E001BE704770B504000D001F2802D90020FFF7F6FF1034A40080239B059C4664442068256070BDC04610B5040006E0084B586800F041
:4004000083F9074B9C46644480231B029C42F4D8024B9868604300F077F910BDC40000200080FFFF10B5034B1B7B584300F06CF910BDC046C4000020F0B557464E46C0B4E1
:4004400083B0040000F06AF90190E71E2D2F74D83F4B1B78DBB29C4208D83E4B1B78DBB29A463D4B1B78DBB2994631E03B4B1B78DBB29C4208D83A4B1B78DBB29A46394BBE
:400480001B78DBB2994623E0374B1B78DBB29C4208D8364B1B78DBB29A46354B1B78DBB2994615E0334B1B78DBB29C4208D8324B1B78DBB29A46314B1B78DBB2994607E0AA
:4004C0002F4B1B78DBB29A462E4B1B78DBB299462D4BDE5D2F2E09D92A2C07D919222B4B1A60052000F010F9192503E0274B1D683F231D40B54206D9234BDA5D234B1A605F
:40050000052000F001F91F4B9C4664442378DBB21F4A13601F4B52461A601F4B4A461A600520FFF77FFFB5420AD2174BDA5D174B1A60052000F0E8F802E00020FFF746FFB1
:40054000019800F0EFF803B00CBC91469A46F0BDC0F1FF0FC1F1FF0FC2F1FF0FC3F1FF0FC4F1FF0FC5F1FF0FC6F1FF0FC7F1FF0FC8F1FF0FC9F1FF0FCAF1FF0FCBF1FF0FF6
:40058000CCF1FF0FCDF1FF0F040C00002CFF0B4028FF0B401CFF0B4020FF0B40034B1868C0231B02184000D00120704700010B4010B500F0B3F8044A1368C02109020B435F
:4005C000136000F0AFF810BD00010B4010B500F0A5F808490A68084B1A408024E40122430A600A6813408022120213430B6000F099F810BD00010B40FF3FFFFF70B5050082
:4006000000F08CF80400FFF7C9FF002803D0FFF7DDFF012100E0002108482840084A1568084B2B40184310601368012901D1FFF7BFFF200000F076F870BDC046040404009C
:4006400010020B40FBFBFBFF10B5244B1B685B0715D5234B1B685B070ED5224BD969042001401F4C22688A432260DA698243DA611B69002B00D098470420FFF7BFFF174BC1
:400680001B685B0518D5164B1B685B0510D5154BD9698022D2001140114802688A430260D969114A0A40DA615B69002B00D098478020C000FFF7A2FF084B1B685B030CD51C
:4006C000074B1B685B0304D5064B9B69002B00D098478020C002FFF791FF10BD10020B40D800002060010020FFFBFFFF04490A68D2B240239A43800118401043086070476E
:4007000000010440000000000230800804D0C0460138FDD1C046C046C0467047EFF3108072B6704780F310887047C046044B1B680F221340082BF9D0024B18607047C04623
:400740000802064040020640F0B5030CFF2633400E4F9B00DC59240E2506030A33409B00DA59FF2109040A402C005440330003409B00DA59FF210902114022004A40030EC9
:400780009B00DB5933405A401000F0BD340C000030B50C4D80004059000E040689004859FF2109040840604092005259FF210902114002004A409B005B59FF2003405A4022
:4007C000100030BD340C000003781A0643781B041343827812021343C07818437047C0460B0E03700B0C43700B0A8370C1707047F0B55F4656464D464446F0B4C3B0059048
:400800000E009246002406E0A5007019FFF7DCFF06ABE8500134072CF6DD002457E026000836A30006AA9F58E51DAB009858FFF78BFF7840E317072213401B19DB109B0097
:40084000BA4A9B585840B30006AA9850631C9B009B585840230009339B009850A31C9B009B58584023000A339B009850E31C9B009B58584023000B339B009850302C28D0F2
:4008800027000C37231D9B009B5898460823D841FFF75AFF43465840BF0006ABF85022000D32631D9B0006A95B5858409300585022000E32A31D9B005B58584093005850C2
:4008C0000F34AD006B585840A40060503400372CA5DD5046FFF778FF05005346181DFFF773FF040050460830FFF76EFF060050460C30FFF769FF069B6B40079A11006140F8
:40090000089A5640099A5040012293460193B2460090019F3A0E854892008218966A0C0CFF221440A4000419A56A08239946DD41754053461C0A1440A4000419A46A102304
:400940009C46DC4165401400009B1C40A4000419A46A1823DC4165405B469C001B01984606AB4646F3581E006E40029604960D0EAD004519AB6A984653461D0C1540AD0062
:400980004519AD6A4B46DD4143466B409846009D2D0A1540AD004519AD6A6346DD4143465D4013003B409B009846804443469B6A1826F3415D402600631C9B00984606AB92
:4009C0004446E3586B4003935446250EAD004519AC6AA046009C250C1540AD004519AD6A4C46E54143466B4098463D0A1540AD004519AD6A6446E5414446654013000B40F4
:400A00009C00A04680444446A46A23001827FB415D4034000234A400A04606AC43461C596540009C270EBF00C719BF6A019B1B0C13409B00C3189B6A4C46E3415F40090AC2
:400A40001140890041188B6A6446E3415F405446224092008018836A1822D3415F4034000334A40006AAA3585F4000975A460D2A07D001229446E344029B01930399AA4662
:400A800047E7009FA846039D290C43461A0AFBB2D2B2C9B2049E300EFFF77AFEE02306AAD35801005940059C2000FFF799FE4246110C3A0AF3B2D2B2C9B2280EFFF768FE1A
:400AC000E42306AAD35801005940201DFFF788FE390C320AEBB2D2B2C9B24046000EFFF757FEE82306AAD3580100594020000830FFF776FE310C2A0A4346684603700378ED
:400B0000D2B2C9B2380EFFF743FEEC2306AAD3580100594020000C30FFF762FE43B03CBC90469946A246AB46F0BDC04634100000014B18687047C0463C0100200E4B70B52F
:400B400000251E000D4CE41AA410A54204D0AB00F35898470135F8E700F082FC084B00251E00084CE41AA410A54204D0AB00F35898470135F8E770BD6C1400006C140000A6
:400B80006C1400007414000003008218934202D019700133FAE7704700000000616263646566676831323334353637380000000041414141414141414141414141414141BC
:400BC000000000004242424242424242424242424242424200000000434343434343434343434343434343430000000054657374696E670D0A00000000300F4000040040ED
:400C00000F400004030405060708090A0B0C0E0F101112131415161718191B1C1D1E1F2021222325262728292A2B2E2F3031323334350000636363637C7C7C7C7777777719
:400C40007B7B7B7BF2F2F2F26B6B6B6B6F6F6F6FC5C5C5C53030303001010101676767672B2B2B2BFEFEFEFED7D7D7D7ABABABAB76767676CACACACA82828282C9C9C9C90C
:400C80007D7D7D7DFAFAFAFA5959595947474747F0F0F0F0ADADADADD4D4D4D4A2A2A2A2AFAFAFAF9C9C9C9CA4A4A4A472727272C0C0C0C0B7B7B7B7FDFDFDFD93939393EC
:400CC00026262626363636363F3F3F3FF7F7F7F7CCCCCCCC34343434A5A5A5A5E5E5E5E5F1F1F1F171717171D8D8D8D8313131311515151504040404C7C7C7C723232323CC
:400D0000C3C3C3C31818181896969696050505059A9A9A9A070707071212121280808080E2E2E2E2EBEBEBEB27272727B2B2B2B27575757509090909838383832C2C2C2CC3
:400D40001A1A1A1A1B1B1B1B6E6E6E6E5A5A5A5AA0A0A0A0525252523B3B3B3BD6D6D6D6B3B3B3B329292929E3E3E3E32F2F2F2F8484848453535353D1D1D1D1000000001B
:400D8000EDEDEDED20202020FCFCFCFCB1B1B1B15B5B5B5B6A6A6A6ACBCBCBCBBEBEBEBE393939394A4A4A4A4C4C4C4C58585858CFCFCFCFD0D0D0D0EFEFEFEFAAAAAAAA97
:400DC000FBFBFBFB434343434D4D4D4D333333338585858545454545F9F9F9F9020202027F7F7F7F505050503C3C3C3C9F9F9F9FA8A8A8A851515151A3A3A3A340404040CF
:400E00008F8F8F8F929292929D9D9D9D38383838F5F5F5F5BCBCBCBCB6B6B6B6DADADADA2121212110101010FFFFFFFFF3F3F3F3D2D2D2D2CDCDCDCD0C0C0C0C1313131352
:400E4000ECECECEC5F5F5F5F979797974444444417171717C4C4C4C4A7A7A7A77E7E7E7E3D3D3D3D646464645D5D5D5D191919197373737360606060818181814F4F4F4FF2
:400E8000DCDCDCDC222222222A2A2A2A909090908888888846464646EEEEEEEEB8B8B8B814141414DEDEDEDE5E5E5E5E0B0B0B0BDBDBDBDBE0E0E0E0323232323A3A3A3A7A
:400EC0000A0A0A0A4949494906060606242424245C5C5C5CC2C2C2C2D3D3D3D3ACACACAC626262629191919195959595E4E4E4E479797979E7E7E7E7C8C8C8C8373737375E
:400F00006D6D6D6D8D8D8D8DD5D5D5D54E4E4E4EA9A9A9A96C6C6C6C56565656F4F4F4F4EAEAEAEA656565657A7A7A7AAEAEAEAE08080808BABABABA787878782525252569
:400F40002E2E2E2E1C1C1C1CA6A6A6A6B4B4B4B4C6C6C6C6E8E8E8E8DDDDDDDD747474741F1F1F1F4B4B4B4BBDBDBDBD8B8B8B8B8A8A8A8A707070703E3E3E3EB5B5B5B569
:400F8000666666664848484803030303F6F6F6F60E0E0E0E616161613535353557575757B9B9B9B986868686C1C1C1C11D1D1D1D9E9E9E9EE1E1E1E1F8F8F8F898989898F9
:400FC0001111111169696969D9D9D9D98E8E8E8E949494949B9B9B9B1E1E1E1E87878787E9E9E9E9CECECECE5555555528282828DFDFDFDF8C8C8C8CA1A1A1A189898989F9
:401000000D0D0D0DBFBFBFBFE6E6E6E6424242426868686841414141999999992D2D2D2D0F0F0F0FB0B0B0B054545454BBBBBBBB161616160000000100000002000000048D
:4010400000000008000000100000002000000040000000800000001B00000036A56363C6847C7CF8997777EE8D7B7BF60DF2F2FFBD6B6BD6B16F6FDE54C5C591503030604F
:4010800003010102A96767CE7D2B2B5619FEFEE762D7D7B5E6ABAB4D9A7676EC45CACA8F9D82821F40C9C989877D7DFA15FAFAEFEB5959B2C947478E0BF0F0FBECADAD4168
:4010C00067D4D4B3FDA2A25FEAAFAF45BF9C9C23F7A4A453967272E45BC0C09BC2B7B7751CFDFDE1AE93933D6A26264C5A36366C413F3F7E02F7F7F54FCCCC835C343468E8
:40110000F4A5A55134E5E5D108F1F1F9937171E273D8D8AB533131623F15152A0C04040852C7C795652323465EC3C39D28181830A19696370F05050AB59A9A2F0907070EB0
:40114000361212249B80801B3DE2E2DF26EBEBCD6927274ECDB2B27F9F7575EA1B0909129E83831D742C2C582E1A1A342D1B1B36B26E6EDCEE5A5AB4FBA0A05BF65252A483
:401180004D3B3B7661D6D6B7CEB3B37D7B2929523EE3E3DD712F2F5E97848413F55353A668D1D1B9000000002CEDEDC1602020401FFCFCE3C8B1B179ED5B5BB6BE6A6AD49B
:4011C00046CBCB8DD9BEBE674B393972DE4A4A94D44C4C98E85858B04ACFCF856BD0D0BB2AEFEFC5E5AAAA4F16FBFBEDC5434386D74D4D9A5533336694858511CF45458A39
:4012000010F9F9E906020204817F7FFEF05050A0443C3C78BA9F9F25E3A8A84BF35151A2FEA3A35DC04040808A8F8F05AD92923FBC9D9D214838387004F5F5F1DFBCBC630C
:40124000C1B6B67775DADAAF63212142301010201AFFFFE50EF3F3FD6DD2D2BF4CCDCD81140C0C18351313262FECECC3E15F5FBEA2979735CC4444883917172E57C4C493A2
:40128000F2A7A755827E7EFC473D3D7AAC6464C8E75D5DBA2B191932957373E6A06060C098818119D14F4F9E7FDCDCA3662222447E2A2A54AB90903B8388880BCA46468C09
:4012C00029EEEEC7D3B8B86B3C14142879DEDEA7E25E5EBC1D0B0B1676DBDBAD3BE0E0DB563232644E3A3A741E0A0A14DB4949920A06060C6C242448E45C5CB85DC2C29F2F
:401300006ED3D3BDEFACAC43A66262C4A8919139A495953137E4E4D38B7979F232E7E7D543C8C88B5937376EB76D6DDA8C8D8D0164D5D5B1D24E4E9CE0A9A949B46C6CD8BF
:40134000FA5656AC07F4F4F325EAEACFAF6565CA8E7A7AF4E9AEAE4718080810D5BABA6F887878F06F25254A722E2E5C241C1C38F1A6A657C7B4B47351C6C69723E8E8CBAB
:401380007CDDDDA19C7474E8211F1F3EDD4B4B96DCBDBD61868B8B0D858A8A0F907070E0423E3E7CC4B5B571AA6666CCD84848900503030601F6F6F7120E0E1CA36161C273
:4013C0005F35356AF95757AED0B9B9699186861758C1C199271D1D3AB99E9E2738E1E1D913F8F8EBB398982B33111122BB6969D270D9D9A9898E8E07A7949433B69B9B2DA5
:40140000221E1E3C9287871520E9E9C949CECE87FF5555AA782828507ADFDFA58F8C8C03F8A1A15980898909170D0D1ADABFBF6531E6E6D7C6424284B86868D0C34141824D
:40144000B0999929772D2D5A110F0F1ECBB0B07BFC5454A8D6BBBB6D3A16162C43000000F8B5C046F8BC08BC9E4670475D0100005D020000F8B5C046F8BC08BC9E46704720
:401480003501000098140000C000002080000000400000000000000000000000010000000000E02EC05D00001800000000366E0104040400000000000000000000000000B5
:4014C00000000000000000000000000000000000000000005C140000000000000000000000000000000000000000000000000000000000000000000000000000000000007C
:401500000000000000000000000000000000000000000000DC00002000000000000000000000000000000000000000000000000000000000000000000000000000000000AF
:40154000000000000000000000000000000000000000000000000000000000000000000000000000000000000000000000000000000000000000000000000000000000006B
:40158000000000000000000000000000000000000000000000000000000000000000000000000000000000000000000000000000000000000000000000000000000000002B
:4015C00000000000000000000000000000000000000000000000000000000000000000000000000000000000000000000000000000000000000000000000000000000000EB
:4016000000000000000000000000000000000000000000000000000000000000000000000000000000000000000000000000000000000000000000000000000000000000AA
:0200000490303A
:020000000F0CE3
:0200000490402A
:200000000000000000000000000000000000000000000000000000000000000000000000E0
:0200000490501A
:0C000000000204C81193110104D0209FDD
:0200000490600A
:0100000001FE
:00000001FF