:400000000010002011000000550500005505000010B500F0A7FAC04670B5164C23688022D202134323600F2000F012FE2268124B13402360114A124B1A601022114B1A60E8
:400040001032114B1A6080221206104B1A60002525600F4A0F4B1A600F4A104B1A601049092000F0A7FD092000F08EFD0D4B1D6070BDC04600010B40FFFFFBFF0600008048
:4000800004010B40080202403002024008010B400A000080000002400F00008040000240610E00000C020B4010B572B60122364B1A7000240FE035486200131959000B009A
:4000C000411889881A5AC31858880004104300F03BFA0134E4B2012CEDD92C490C312C48643000F017FA802252002A4B1A80FF3A294B1A70C0229202284B1A60EE221202B1
:40010000274B1A609922274B1A6099231B04264A13602649264A116080210905254A116080218904244A1160244A13600D22244B1A600132234B1A6023490B782E32934349
:4001400014221343DBB20B70204A117816230B43DBB213708022D2031D4B1A6010221D4B1A60E02212021C4B1A60D82212011B4B1A6002231A4A136031211A4A11601A4A89
:400180001360FFF749FF10BD1C700F4024190000A41B000000600F4002600F40040001400C0001401000014000500F400400990010500F4014500F4018500F4030500F4083
:4001C0002000004000800F4001700F4000700F400800044000010440080104400803044000040440080404401804044010B5064C2378002B07D1054B002B02D0044800E0FE
:4002000000BF0123237010BD4001002000000000AC100000084B10B5002B03D00749084800E000BF07480368002B00D110BD064B002BFBD09847F9E700000000440100201B
:40024000AC100000C00000200000000010B50D21034800F001F900F075FB00F0E3FC10BDE018000030B597B0002407E023012349C9181022224800F0F3FA01347F2CF5DDF3
:40028000012000F00DF902AC4D220021200000F0F4FE502323800121200000F0DDF8200000F0EAF8174D0121280000F0D5F8200000F0E2F823786A46D01D0370012212495A
:4002C00000F0CEFA0121280000F0C6F800240EE002A800F0D1F823010849C918102202A800F0BEFA0121074800F0B6F801346B4607331B789C42EBDB17B030BDB010000025
:40030000F018000000190000B0180000F0B585B0124D2C7810220021684600F0AEFE104F23016A46FB1813CB13C21B6813601021684600F091F82978090179181022094854
:4003400000F08EFA2B780133DA17520E9B187F210B409B1A2B7005B0F0BDC0465C010020B0100000F018000010B592B062B6314800F0DAFA00F072FA00F054F92E4B1B7940
:40038000002B0AD1FFF76EFF472068440123037001222949043100F063FA002000F080F8254C0834200000F07AFEC1B2200000F053F801A800F060F8210001A800F065FE7A
:4003C000002804D003211D4800F046F8E5E701211B4800F041F801AC200000F04DF82478154B1B78DBB29C4204D90321134800F033F8D2E70121124800F02EF80E490B7838
:40040000462068441B1B0370012200F029FA002247236B441A7006E0FFF778FF47226A4413780133137047236B441B789C42F3D8B3E7C0464D020000B01800000419000031
:400440000019000010B500F017F90028FBD000F0DFF9C0B210BDC04670B506000D00080000F01EF9002403E0305D00F019F90134AC42F9DB002070BDF0B583B00600FFF7A9
:40048000E1FF01900700002404E03519FFF7DAFF28700134BC42F8DB019803B0F0BDC04610B588B004006846FFF7E6FF1449684600F0EBFD002809D0684600F0F0FDC1B296
:4004C0006846FFF7C9FF0F4B009310E0002C07D005210D48FFF7C0FF6846FFF7CDFF06E005210A48FFF7B8FF6846FFF7C5FF0849684600F0CAFD0028D5D108B010BDC0468E
:400500000819000042414400101900001819000020190000F0B50025002711E0BB00C658F3B2FF22964308E06A008A181478A419527822700135013BDBB2002BF4D1013726
:40054000072FEBD9F0BDC04610B50A00002100F094FD10BD10B500F05BFD03680C2B00D1FEE7FEE770B50F4E0F4D13E029686B68AC68002202E001C901C30432A242FAD186
:40058000E868002202E0002102C304328242FAD11035013E002EE9D100F040FDFFF7E4FEFEE7C046010000007C1C000010B500230AE0032B03D89A000949505800E00948A7
:4005C0009900094A885001332F2BF2D9FFF76CFD8022D205116801230B43136010BDC04600000000550500000000002010B50A2000F0CAFA10BDC04610B500F0F7F810BD74
:4006000010B500F085F810BD10B5054A1368802109060B431360FFF7E9FFFFF7EDFF10BD0000064010B5064B1B78002B04D1FFF7E7FF0122024B1A70FFF7E6FF10BDC046BB
:4006400060010020094B1A68094B1B689A420BD0074B1B680133812B00D10023054AD05CC0B2034A136000E000207047200200201802002094010020074B1B68074A1268B7
:40068000934203D3054A1068181A04E0034A10681B1A8133180070472002002018020020144B1A68144B1B689A4208D1134B1B680F221340082B02D0114B186019E00D4BB2
:4006C0001A680132802A00D100220B4B1B689A42FBD002230B490B60C0B20B49885405490A600A4A1268134203D1084A11680B43136070471C020020900100200802064071
:4007000040020640800F064028020020880F064010B51E4A1E4B1A6000241E4B1C6001221D4B1A601D4B1E490B6007201D4908601D490C601D490A601D4A13601D4B1C6088
:40074000033000F02BFA03210A2000F045FA1A490A2000F02FFA194B1C60194B1C60194B1C60194B1C600422184B1A60184B1C601A68184B1A80184B1C60184B1C60184B0C
:400780001C70184B1C60184B1C6010BD0B000002000006404000064048000640070000800003064004030640100306404400064000020640040206402D0F0000880E06400F
:4007C000C80E0640480F0640080F0640C80F0640880F0640680100202002002018020020240200201C0200209001002005490B68F0229343603A13430B60034B1A88034B6D
:400800001A6070471000014068010020880F064010B50A2000F0C2F9FFF72EFF002806D00A2000F0B1F9FFF70DFF040007E0094B1C680422084B1A600A2000F0A5F9064B90
:400840001868D82292001A600002D8239B021840204310BD40030640C00F06407047C046F0B54F464646C0B4A1B0804617000E008A1880231B029A4229D8CC0BC909FF23F5
:400880000B40994624024C44E4010020002519E0B44207D3BD4205D24246525D6946CA54013502E022786946CA540134013300E000237F2BECD96946484600F061F8012387
:4008C0009C46E144BD4203D20028F1D000E00120012801D90120404221B00CBC90469946F0BDC046014B18647047C0460000002010B5040000F012FB044A1368C0218B43A9
:40090000A4011C43146000F00DFB10BD00E400E00122014B1A60704700E100E00122014B1A60704780E100E010B50400FFF7F6FF2000FFF7D7FF0320FFF7DAFFFFF7E8FF05
:4009400010BDC046034B1868C0B27F2290431860C009704710000440024B1A68024B1A600020704708010B406C010020024B1A68024B1A60002070476C01002008010B4008
:40098000F0B5A7B00500002325932493FF2800D9E4E0002900D1E1E0802204A800F064FB022300200021002408E09A0002AE9259002A02D0891810431C000133212BF4D988
:4009C000002903D1002803D1002602E0002600E00126002E06D0A30002AA9F58002202A95A5000E00027604B02937F2303935F4B02AA1A605E495F4A1160C0461B681B0F45
:400A00001B07F0221206934204D1584B1B68FF2213400BE0554B1B681B0F1B07A0221206934202D0514B1B6800E000232593259B002B00D094E000F071FA0190FFF78CFFD5
:400A40002490259B002B25D14B4B0293029A2B0413430293454B02AA1A604849454A1160C0461B681B0F1B07F0221206934204D13E4B1B68FF2213400BE03C4B1B681B0F71
:400A80001B07A0221206934202D0384B1B6800E000232593259B002B56D1002E54D08022002104A800F0E9FAA40002ABE7502E4B02937F2303932D4B02AA1A602C492D4AD4
:400AC0001160C0461B681B0F1B07F0221206934204D1264B1B68FF2213400BE0234B1B681B0F1B07A0221206934202D01F4B1B6800E000232593259B002B25D1204B029342
:400B0000029B2D041D430295184B02AA1A601D49184A1160C0461B681B0F1B07F0221206934204D1114B1B68FF2213400BE00F4B1B681B0F1B07A0221206934202D00B4B47
:400B40001B6800E000232593249B002B02D1FFF70DFF2490019800F0E5F901E004232593259827B0F0BDC046B6D70000080000400400008004000040B6D8000005000080A6
:400B8000B6D90000060000801F2318401E3B8340014A13607047C04600E100E01F2318401E3B8340014A13607047C04680E100E001BE704770B504000D001F2802D90020CE
:400BC000FFF7F6FF1034A40080239B059C4664442068256070BDC04670B504000E00032902D90020FFF7E4FF1F2C02D90020FFF7DFFF03252540ED00063500F08FF9A408EB
:400C0000A400074B9C46644421680323AB4099430B003100A9401943216000F083F970BD00E400E0034A13681B041B0C02490B43136070470CED00E00400FA0510B5034B9F
:400C40001B7B584300F060F910BDC046C4000020F0B557464E46C0B483B0040000F05EF90190E71E2D2F74D83F4B1B78DBB29C4208D83E4B1B78DBB29A463D4B1B78DBB2A4
:400C8000994631E03B4B1B78DBB29C4208D83A4B1B78DBB29A46394B1B78DBB2994623E0374B1B78DBB29C4208D8364B1B78DBB29A46354B1B78DBB2994615E0334B1B786F
:400CC000DBB29C4208D8324B1B78DBB29A46314B1B78DBB2994607E02F4B1B78DBB29A462E4B1B78DBB299462D4BDE5D2F2E09D92A2C07D919222B4B1A60052000F004F973
:400D0000192503E0274B1D683F231D40B54206D9234BDA5D234B1A60052000F0F5F81F4B9C4664442378DBB21F4A13601F4B52461A601F4B4A461A600520FFF77FFFB542FF
:400D40000AD2174BDA5D174B1A60052000F0DCF802E00020FFF72CFF019800F0E3F803B00CBC91469A46F0BDC0F1FF0FC1F1FF0FC2F1FF0FC3F1FF0FC4F1FF0FC5F1FF0F4A
:400D8000C6F1FF0FC7F1FF0FC8F1FF0FC9F1FF0FCAF1FF0FCBF1FF0FCCF1FF0FCDF1FF0F281C00002CFF0B4028FF0B401CFF0B4020FF0B40034B1868C0231B02184000D0FD
:400DC0000120704700010B4010B500F0A7F8044A1368C02109020B43136000F0A3F810BD00010B4010B500F099F808490A68084B1A408024E40122430A600A6813408022EC
:400E0000120213430B6000F08DF810BD00010B40FF3FFFFF70B5050000F080F80400FFF7C9FF002803D0FFF7DDFF012100E0002108482840084A1568084B2B4018431060BF
:400E40001368012901D1FFF7BFFF200000F06AF870BDC0460404040010020B40FBFBFBFF10B5244B1B685B0715D5234B1B685B070ED5224BD969042001401F4C22688A433A
:400E80002260DA698243DA611B69002B00D098470420FFF7BFFF174B1B685B0518D5164B1B685B0510D5154BD9698022D2001140114802688A430260D969114A0A40DA6161
:400EC0005B69002B00D098478020C000FFF7A2FF084B1B685B030CD5074B1B685B0304D5064B9B69002B00D098478020C002FFF791FF10BD10020B40D80000207001002072
:400F0000FFFBFFFF000000000230800804D0C0460138FDD1C046C046C0467047EFF3108072B6704780F310887047C04610B5274B1B68002B00D09847254B1B685B071DD561
:400F4000244B1B680133812B00D10023224A1268934205D1214B1B682022214B1A7006E01E4A1268D2B21F49CA541A4A13601E4B1B681B07E4D104221C4B1A601C4B1B6896
:400F80009B0721D51B4B1A681B4B1B689A4213D0194B1B680133802B00D10023174AD25CD2B217490A60144A1360164B1B680F221340082BE6D104E0134A136802218B43A2
:400FC00013600222114B1A6010BDC04664010020CC0F0640200200201802002040030640240200209401002008030640C00F06408C0F06401C02002090010020280200208B
:401000004002064008020640880F0640800F0640014B18687047C0463C0100200E4B70B500251E000D4CE41AA410A54204D0AB00F35898470135F8E700F00EFE084B00255B
:401040001E00084CE41AA410A54204D0AB00F35898470135F8E770BD641C0000641C0000641C00006C1C0000002310B59A4203D0CC5CC4540133F9E710BD03008218934248
:4010800002D019700133FAE7704702780B78002A03D0013001319A42F7D0D01A70470023C25C0133002AFBD1581E7047000000002A2A2A2A2A454D5054592A2A2A2A2A009D
:4010C00000000000000000000000000000000000000000000000000000000000000000000000000000000000000000000000000000000000000000000000000000000000F0
:4011000000000000000000000000000000000000000000000000000000000000000000000000000000000000000000000000000000000000000000000000000000000000AF
:40114000000000000000000000000000000000000000000000000000000000000000000000000000000000000000000000000000000000000000000000000000000000006F
:40118000000000000000000000000000000000000000000000000000000000000000000000000000000000000000000000000000000000000000000000000000000000002F
:4011C00000000000000000000000000000000000000000000000000000000000000000000000000000000000000000000000000000000000000000000000000000000000EF
:4012000000000000000000000000000000000000000000000000000000000000000000000000000000000000000000000000000000000000000000000000000000000000AE
:40124000000000000000000000000000000000000000000000000000000000000000000000000000000000000000000000000000000000000000000000000000000000006E
:40128000000000000000000000000000000000000000000000000000000000000000000000000000000000000000000000000000000000000000000000000000000000002E
:4012C00000000000000000000000000000000000000000000000000000000000000000000000000000000000000000000000000000000000000000000000000000000000EE
:4013000000000000000000000000000000000000000000000000000000000000000000000000000000000000000000000000000000000000000000000000000000000000AD
:40134000000000000000000000000000000000000000000000000000000000000000000000000000000000000000000000000000000000000000000000000000000000006D
:40138000000000000000000000000000000000000000000000000000000000000000000000000000000000000000000000000000000000000000000000000000000000002D
:4013C00000000000000000000000000000000000000000000000000000000000000000000000000000000000000000000000000000000000000000000000000000000000ED
:4014000000000000000000000000000000000000000000000000000000000000000000000000000000000000000000000000000000000000000000000000000000000000AC
:40144000000000000000000000000000000000000000000000000000000000000000000000000000000000000000000000000000000000000000000000000000000000006C
:40148000000000000000000000000000000000000000000000000000000000000000000000000000000000000000000000000000000000000000000000000000000000002C
:4014C00000000000000000000000000000000000000000000000000000000000000000000000000000000000000000000000000000000000000000000000000000000000EC
:4015000000000000000000000000000000000000000000000000000000000000000000000000000000000000000000000000000000000000000000000000000000000000AB
:40154000000000000000000000000000000000000000000000000000000000000000000000000000000000000000000000000000000000000000000000000000000000006B
:40158000000000000000000000000000000000000000000000000000000000000000000000000000000000000000000000000000000000000000000000000000000000002B
:4015C00000000000000000000000000000000000000000000000000000000000000000000000000000000000000000000000000000000000000000000000000000000000EB
:4016000000000000000000000000000000000000000000000000000000000000000000000000000000000000000000000000000000000000000000000000000000000000AA
:40164000000000000000000000000000000000000000000000000000000000000000000000000000000000000000000000000000000000000000000000000000000000006A
:40168000000000000000000000000000000000000000000000000000000000000000000000000000000000000000000000000000000000000000000000000000000000002A
:4016C00000000000000000000000000000000000000000000000000000000000000000000000000000000000000000000000000000000000000000000000000000000000EA
:4017000000000000000000000000000000000000000000000000000000000000000000000000000000000000000000000000000000000000000000000000000000000000A9
:401740000000000000000000000000000000000000000000000000000000000000000000000000000000000000000000000000000000000000000000000000000000000069
:401780000000000000000000000000000000000000000000000000000000000000000000000000000000000000000000000000000000000000000000000000000000000029
:4017C00000000000000000000000000000000000000000000000000000000000000000000000000000000000000000000000000000000000000000000000000000000000E9
:4018000000000000000000000000000000000000000000000000000000000000000000000000000000000000000000000000000000000000000000000000000000000000A8
:401840000000000000000000000000000000000000000000000000000000000000000000000000000000000000000000000000000000000000000000000000000000000068
:401880000000000000000000000000000000000000000000000000000000000000000000000000000000000000000000000000000000000000000000626C616E6B20757516
:4018C0006964210000000000000000000000000000000000000000000000000000000000496E20696E746572727570740A0000002A2A2A2A2A454D5054592A2A2A2A2A00F9
:401900004B00000042414400524541445900000048534D5F5000000048534D5F4E000000474F000000300F40000400400F400004800F817A823804330501060C0A0814335C
:401940001604180A1A342403261428402A15301032603301340F38083A203E013F0440264103450C460B470E481549FF4AFF4BFF4EF04F44500C54015604580459045A04A4
:401980005B045F0166C06A406B028110826384BC8508864388FF89388C088D048F80909F926093039403957F98E3993C9A1C9B429C109F04A002A120A404A547A738A81C75
:4019C000AC01AD3CAF41B05CB180B23CB41FB53FB680B740B980BA22BB28BE40D602D713D804D904DB04DF010004030804280501060209080B140D020E26103814401601A3
:401A0000172818041A501B081C411D261E041F0222042428262827822D012E042F0235013628378039083E2A3F804004410848285080510458105A495C0163406D516E02D3
:401A40006F10762A77288740C0F6C2F6C4F6CAD0CCF0CEF2D006D204D68FD80102030308060308030D010E030F02102112181304141316641708180319031C421D021E1849
:401A80001F01230424F028F029032C80308031033270330434033508360C3E403F14402441064203440145C047E0482249FF4AFF4BFF4C624DA04EF04F41500C5418560466
:401AC000580459045A045B045F016640670269106A306B106D106E106F1284108531860C874689318B0E8C10940996109713996C9B039E039F08A014A180A41CA602A80C96
:401B0000AA11AB4CB130B34AB50FB61FB780B902BB28BF41C005C540C9FFCA07CBFFCC40CD20CEF0CF05D008D804D904DA04DF01E040E1A8E240E3200084044805010604F2
:401B400008080A110C400E2A0F80108013141540162017101A011B801D931E202252231425102601272028082B802D102E223008329034403504371A38043B103F8245A23D
:401B80004604470848404A8E4E084F025008560259205B205D02652066806780811082C1834087408D12904C91509210971499049B129C409D019E01A080A120A208A4088F
:401BC000A610A740AD04AE01C0F5C2F5C4EECAA5CCFECE96D0F0D228D680D8B00E086E08712077028702C280DA80DC60E6400E406010801082408520A520C220D840E02004
:401C0000E210E6801001110103000F4059300F403A310F406E320F4052330F4009400F400B410F4002600F40030405060708090A0B0C0E0F101112131415161718191B1C32
:401C40001D1E1F2021222325262728292A2B2E2F3031323334354300F8B5C046F8BC08BC9E46704715020000AD050000F8B5C046F8BC08BC9E467047ED010000901C0000AE
:401C8000C0000020800000006801000000000000000000000100000000004C1D983A00000F000000C0E1E4000404040000000000000000000000000000000000000000007F
:401CC000000000000000000000000000561C000000000000000000000000000000000000000000000000000000000000000000000000000000000000000000000000000072
:401D0000000000000000000000000000DC000020000000000000000000000000000000000000000000000000000000000000000000000000000000000000000000000000A7
:401D40000000000000000000000000000000000000000000000000000000000000000000000000000000000000000000000000000000000000000000000000000000000063
:401D80000000000000000000000000000000000000000000000000000000000000000000000000000000000000000000000000000000000000000000000000000000000023
:401DC00000000000000000000000000000000000000000000000000000000000000000000000000000000000000000000000000000000000000000000000000000000000E3
:401E000000000000000000000000000000000000000000000000000000000000000000000000000000000000000000000000000000000000000000000000000000000000A2
:0200000490303A
:0200000088DF97
:0200000490402A
:200000000000000000000000000000000000000000000000000000000000000000000000E0
:0200000490501A
:0C000000000204C81193110004CE9A7293
:0200000490600A
:0100000002FD
:00000001FF