:4000000000100020110000001D0700001D07000010B500F08BFBC04670B5164C23688022D202134323600F2000F0F6FE2268124B13402360114A124B1A601022114B1A608B
:400040001032114B1A6080221206104B1A60002525600F4A0F4B1A600F4A104B1A601049092000F08BFE092000F072FE0D4B1D6070BDC04600010B40FFFFFBFF060000807E
:4000800004010B40080202403002024008010B400A000080000002400F00008040000240291000000C020B4010B572B60122364B1A7000240FE035486200131959000B00D0
:4000C000411889881A5AC31858880004104300F01FFB0134E4B2012CEDD92C490C312C48643000F0FBFA802252002A4B1A80FF3A294B1A70C0229202284B1A60EE221202E8
:40010000274B1A609922274B1A6099231B04264A13602649264A116080210905254A116080218904244A1160244A13600D22244B1A600132234B1A6023490B782E32934349
:4001400014221343DBB20B70204A117816230B43DBB213708022D2031D4B1A6010221D4B1A60E02212021C4B1A60D82212011B4B1A6002231A4A136031211A4A11601A4A89
:400180001360FFF749FF10BD1C700F405C240000DC26000000600F4002600F40040001400C0001401000014000500F400400990010500F4014500F4018500F4030500F40FD
:4001C0002000004000800F4001700F4000700F400800044000010440080104400803044000040440080404401804044010B5064C2378002B07D1054B002B02D0044800E0FE
:4002000000BF0123237010BD4001002000000000B01B0000084B10B5002B03D00749084800E000BF07480368002B00D110BD064B002BFBD09847F9E700000000440100200C
:40024000B01B0000C00000200000000010B50D21034800F0E5F900F059FC00F0C7FD10BD10240000030008003038C0B2092810D90A00613AD2B2052A02D85739C8B208E0AA
:400280000A00413AD2B2052A02D83739C8B200E000201A00303AD2B2092A04D8303B1B011843C0B212E01A00613AD2B2052A04D8573B1B011843C0B208E01A00413AD2B225
:4002C000052A03D8373B1B011843C0B27047C04630B50023012505E0C45CCA5C944200D0002501331F2BF7DD280030BD70B5B8B06D2200211CA801F041FC002407E02301F3
:400300003D49C91810223D4800F08EFB01347F2CF5DD012000F0A8F91CAC502323800121200000F07DF9200000F08AF9402221000BA801F005FC09AA2CAB03CB03C2002440
:4003400009E06300591C0BAA515CD05CFFF78AFF01AB185501341F2CF3DD002409E06300591C09AA515CD05CFFF77CFF6B4618550134032CF3DD224C2022210001A800F0A8
:4003800053FB210024310422684600F04DFB21002C311CAE24222EA800F046FB194D0121280000F03DF9300000F04AF933786F206844037021005431012200F035FB01213B
:4003C000280000F02DF900240EE01CA800F038F923010949C91810221CA800F025FB0121084800F01DF901346F236B441B789C42EBDB38B070BDC046B41B00002824000010
:40040000B423000038240000F0B585B0124D2C7810220021684601F0B1FB104F23016A46FB1813CB13C21B6813601021684600F0F7F82978090179181022094800F0F4FAC4
:400440002B780133DA17520E9B187F210B409B1A2B7005B0F0BDC0465C010020B41B000028240000F0B54F464646C0B4B5B062B6624800F03DFB00F0D5FA00F0B7F9582303
:400480005F4AD35C002B0AD1FFF730FFCF2068440123037001225A49583100F0C5FA002000F0E2F823AC200000F0CAF80121554800F0B6F82378312B5ED123AC200000F01C
:4004C000BFF80BAF20220021380001F057FB3B00220023CA23C323CA23C303CA03C3200000F0AEF803AD10220021280001F046FB2B00220043CA43C39146984612681A60FB
:40050000200000F09DF807AE10220021300001F035FB330007CC07C34A4612681A601BAB9C46190019CE19C10A601FAA0BCD0BC2414609681160202200926346304913A8F5
:4005400000F0ACFE13A93800FFF7C2FE002804D1202113A800F064F8A1E7002302931033009307AB03AA264902A801F0A9F8042102A800F055F892E7332B08D123A800F05B
:400580005FF824211E482C3000F04AF887E7322B85D101211B4800F043F823AC200000F04FF824785423164AD35CDBB29C4204D90321154800F034F871E70121114800F06A
:4005C0002FF80F495423CB5CCE2068441B1B03705431012200F028FA0022CF236B441A7006E0FFF711FFCF226A44137801331370CF236B441B789C42F3D850E74D02000064
:40060000B4230000382400003C24000010B500F017F90028FBD000F0DFF9C0B210BDC04670B506000D00080000F01EF9002403E0305D00F019F90134AC42F9DB002070BD41
:40064000F0B583B00600FFF7E1FF01900700002404E03519FFF7DAFF28700134BC42F8DB019803B0F0BDC04610B588B004006846FFF7E6FF1449684601F088FA002809D063
:40068000124B0093684601F08BFAC1B26846FFF7C7FF10E0002C07D005210D48FFF7C0FF6846FFF7CDFF06E005210A48FFF7B8FF6846FFF7C5FF0849684601F067FA0028CA
:4006C000D5D108B010BDC0464024000042414700482400005024000058240000F0B50025002711E0BB00C658F3B2FF22964308E06A008A181478A419527822700135013BDA
:40070000DBB2002BF4D10137072FEBD9F0BDC04610B50A00002101F031FA10BD10B501F0E3F903680C2B00D1FEE7FEE770B50F4E0F4D13E029686B68AC68002202E001C998
:4007400001C30432A242FAD1E868002202E0002102C304328242FAD11035013E002EE9D101F0C8F9FFF77EFEFEE7C046010000002031000010B500230AE0032B03D89A008F
:400780000949505800E009489900094A885001332F2BF2D9FFF788FC8022D205116801230B43136010BDC046000000001D0700000000002010B50A2000F0CAFA10BDC04613
:4007C00010B500F0F7F810BD10B500F085F810BD10B5054A1368802109060B431360FFF7E9FFFFF7EDFF10BD0000064010B5064B1B78002B04D1FFF7E7FF0122024B1A7037
:40080000FFF7E6FF10BDC04660010020094B1A68094B1B689A420BD0074B1B680133812B00D10023054AD05CC0B2034A136000E000207047200200201802002094010020E7
:40084000074B1B68074A1268934203D3054A1068181A04E0034A10681B1A8133180070472002002018020020144B1A68144B1B689A4208D1134B1B680F221340082B02D075
:40088000114B186019E00D4B1A680132802A00D100220B4B1B689A42FBD002230B490B60C0B20B49885405490A600A4A1268134203D1084A11680B43136070471C0200208B
:4008C000900100200802064040020640800F064028020020880F064010B51E4A1E4B1A6000241E4B1C6001221D4B1A601D4B1E490B6007201D4908601D490C601D490A6084
:400900001D4A13601D4B1C60033000F02BFA03210A2000F045FA1A490A2000F02FFA194B1C60194B1C60194B1C60194B1C600422184B1A60184B1C601A68184B1A80184B4A
:400940001C60184B1C60184B1C70184B1C60184B1C6010BD0B00000200000640400006404800064007000080000306400403064010030640440006400002064004020640A7
:40098000F5100000880E0640C80E0640480F0640080F0640C80F0640880F0640680100202002002018020020240200201C0200209001002005490B68F0229343603A134373
:4009C0000B60034B1A88034B1A6070471000014068010020880F064010B50A2000F0C2F9FFF72EFF002806D00A2000F0B1F9FFF70DFF040007E0094B1C680422084B1A602F
:400A00000A2000F0A5F9064B1868D82292001A600002D8239B021840204310BD40030640C00F06407047C046F0B54F464646C0B4A1B0804617000E008A1880231B029A42F6
:400A400029D8CC0BC909FF230B40994624024C44E4010020002519E0B44207D3BD4205D24246525D6946CA54013502E022786946CA540134013300E000237F2BECD96946F4
:400A8000484600F061F801239C46E144BD4203D20028F1D000E00120012801D90120404221B00CBC90469946F0BDC046014B18647047C0460000002010B5040000F012FB64
:400AC000044A1368C0218B43A4011C43146000F00DFB10BD00E400E00122014B1A60704700E100E00122014B1A60704780E100E010B50400FFF7F6FF2000FFF7D7FF032078
:400B0000FFF7DAFFFFF7E8FF10BDC046034B1868C0B27F2290431860C009704710000440024B1A68024B1A600020704708010B406C010020024B1A68024B1A60002070477B
:400B40006C01002008010B40F0B5A7B00500002325932493FF2800D9E4E0002900D1E1E0802204A800F0ECFF022300200021002408E09A0002AE9259002A02D089181043C2
:400B80001C000133212BF4D9002903D1002803D1002602E0002600E00126002E06D0A30002AA9F58002202A95A5000E00027604B02937F2303935F4B02AA1A605E495F4A3E
:400BC0001160C0461B681B0F1B07F0221206934204D1584B1B68FF2213400BE0554B1B681B0F1B07A0221206934202D0514B1B6800E000232593259B002B00D094E000F06D
:400C000071FA0190FFF78CFF2490259B002B25D14B4B0293029A2B0413430293454B02AA1A604849454A1160C0461B681B0F1B07F0221206934204D13E4B1B68FF22134051
:400C40000BE03C4B1B681B0F1B07A0221206934202D0384B1B6800E000232593259B002B56D1002E54D08022002104A800F086FFA40002ABE7502E4B02937F2303932D4B63
:400C800002AA1A602C492D4A1160C0461B681B0F1B07F0221206934204D1264B1B68FF2213400BE0234B1B681B0F1B07A0221206934202D01F4B1B6800E000232593259B8F
:400CC000002B25D1204B0293029B2D041D430295184B02AA1A601D49184A1160C0461B681B0F1B07F0221206934204D1114B1B68FF2213400BE00F4B1B681B0F1B07A0227A
:400D00001206934202D00B4B1B6800E000232593249B002B02D1FFF70DFF2490019800F0E5F901E004232593259827B0F0BDC046B6D70000080000400400008004000040E2
:400D4000B6D8000005000080B6D90000060000801F2318401E3B8340014A13607047C04600E100E01F2318401E3B8340014A13607047C04680E100E001BE704770B5040048
:400D80000D001F2802D90020FFF7F6FF1034A40080239B059C4664442068256070BDC04670B504000E00032902D90020FFF7E4FF1F2C02D90020FFF7DFFF03252540ED0039
:400DC000063500F08FF9A408A400074B9C46644421680323AB4099430B003100A9401943216000F083F970BD00E400E0034A13681B041B0C02490B43136070470CED00E095
:400E00000400FA0510B5034B1B7B584300F060F910BDC046C4000020F0B557464E46C0B483B0040000F05EF90190E71E2D2F74D83F4B1B78DBB29C4208D83E4B1B78DBB254
:400E40009A463D4B1B78DBB2994631E03B4B1B78DBB29C4208D83A4B1B78DBB29A46394B1B78DBB2994623E0374B1B78DBB29C4208D8364B1B78DBB29A46354B1B78DBB20A
:400E8000994615E0334B1B78DBB29C4208D8324B1B78DBB29A46314B1B78DBB2994607E02F4B1B78DBB29A462E4B1B78DBB299462D4BDE5D2F2E09D92A2C07D919222B4B58
:400EC0001A60052000F004F9192503E0274B1D683F231D40B54206D9234BDA5D234B1A60052000F0F5F81F4B9C4664442378DBB21F4A13601F4B52461A601F4B4A461A6042
:400F00000520FFF77FFFB5420AD2174BDA5D174B1A60052000F0DCF802E00020FFF72CFF019800F0E3F803B00CBC91469A46F0BDC0F1FF0FC1F1FF0FC2F1FF0FC3F1FF0F7F
:400F4000C4F1FF0FC5F1FF0FC6F1FF0FC7F1FF0FC8F1FF0FC9F1FF0FCAF1FF0FCBF1FF0FCCF1FF0FCDF1FF0F602700002CFF0B4028FF0B401CFF0B4020FF0B40034B186899
:400F8000C0231B02184000D00120704700010B4010B500F0A7F8044A1368C02109020B43136000F0A3F810BD00010B4010B500F099F808490A68084B1A408024E4012243D3
:400FC0000A600A6813408022120213430B6000F08DF810BD00010B40FF3FFFFF70B5050000F080F80400FFF7C9FF002803D0FFF7DDFF012100E0002108482840084A1568B6
:40100000084B2B40184310601368012901D1FFF7BFFF200000F06AF870BDC0460404040010020B40FBFBFBFF10B5244B1B685B0715D5234B1B685B070ED5224BD9690420F2
:4010400001401F4C22688A432260DA698243DA611B69002B00D098470420FFF7BFFF174B1B685B0518D5164B1B685B0510D5154BD9698022D2001140114802688A430260BE
:40108000D969114A0A40DA615B69002B00D098478020C000FFF7A2FF084B1B685B030CD5074B1B685B0304D5064B9B69002B00D098478020C002FFF791FF10BD10020B4017
:4010C000D800002070010020FFFBFFFF000000000230800804D0C0460138FDD1C046C046C0467047EFF3108072B6704780F310887047C04610B5274B1B68002B00D098475E
:40110000254B1B685B071DD5244B1B680133812B00D10023224A1268934205D1214B1B682022214B1A7006E01E4A1268D2B21F49CA541A4A13601E4B1B681B07E4D1042258
:401140001C4B1A601C4B1B689B0721D51B4B1A681B4B1B689A4213D0194B1B680133802B00D10023174AD25CD2B217490A60144A1360164B1B680F221340082BE6D104E0DE
:40118000134A136802218B4313600222114B1A6010BDC04664010020CC0F0640200200201802002040030640240200209401002008030640C00F06408C0F06401C020020FB
:4011C00090010020280200204002064008020640880F0640800F0640F0B585B004000D0003921E000CAB1B780DAA1778002B29D0A8220021280000F0C1FC402E07D92800E2
:4012000068303200039900F05FFB00220DE0280068303200039900F09CFCF6E7AB186833187836214140197001323F2AF6D92A00683200230193013300933F332900002045
:4012400000F0C4FB0197002300930B9B0A9A2900200000F0BBFB002F08D11DE0AB18683318786A2141401970013200E000223F2AF4D92A00683200260196012700974023A2
:401280002900002000F0A2FB01970096202322002900200000F09AFB05B0F0BD10B5AEB0012403940294309C0194009313000A0004A9FFF791FF2EB010BDC046F0B5030C77
:4012C000FF2633400E4F9B00DC59240E2506030A33409B00DA59FF2109040A402C005440330003409B00DA59FF210902114022004A40030E9B00DB5933405A401000F0BD31
:401300009027000030B50C4D80004059000E040689004859FF2109040840604092005259FF210902114002004A409B005B59FF2003405A40100030BD9027000003781A0669
:4013400043781B041343827812021343C07818437047C0460B0E03700B0C43700B0A8370C17070470F2207E081180B780133DBB20B70002B02D1013A002AF5DA7047C046E4
:40138000F0B55F4656464D464446F0B4C3B005900E009246002406E0A5007019FFF7CEFF06ABE8500134072CF6DD002457E026000836A30006AA9F58E51DAB009858FFF7DD
:4013C0007DFF7840E317072213401B19DB109B00BA4A9B585840B30006AA9850631C9B009B585840230009339B009850A31C9B009B58584023000A339B009850E31C9B00C6
:401400009B58584023000B339B009850302C28D027000C37231D9B009B5898460823D841FFF74CFF43465840BF0006ABF85022000D32631D9B0006A95B58584093005850C4
:4014400022000E32A31D9B005B585840930058500F34AD006B585840A40060503400372CA5DD5046FFF76AFF05005346181DFFF765FF040050460830FFF760FF060050468C
:401480000C30FFF75BFF069B6B40079A11006140089A5640099A5040012293460193B2460090019F3A0E854892008218966A0C0CFF221440A4000419A56A08239946DD4118
:4014C000754053461C0A1440A4000419A46A10239C46DC4165401400009B1C40A4000419A46A1823DC4165405B469C001B01984606AB4646F3581E006E40029604960D0ECF
:40150000AD004519AB6A984653461D0C1540AD004519AD6A4B46DD4143466B409846009D2D0A1540AD004519AD6A6346DD4143465D4013003B409B009846804443469B6A22
:401540001826F3415D402600631C9B00984606AB4446E3586B4003935446250EAD004519AC6AA046009C250C1540AD004519AD6A4C46E54143466B4098463D0A1540AD005C
:401580004519AD6A6446E5414446654013000B409C00A04680444446A46A23001827FB415D4034000234A400A04606AC43461C596540009C270EBF00C719BF6A019B1B0C9B
:4015C00013409B00C3189B6A4C46E3415F40090A1140890041188B6A6446E3415F405446224092008018836A1822D3415F4034000334A40006AAA3585F4000975A460D2A59
:4016000007D001229446E344029B01930399AA4647E7009FA846039D290C43461A0AFBB2D2B2C9B2049E300EFFF76CFEE02306AAD35801005940059C2000FFF78BFE424689
:40164000110C3A0AF3B2D2B2C9B2280EFFF75AFEE42306AAD35801005940201DFFF77AFE390C320AEBB2D2B2C9B24046000EFFF749FEE82306AAD3580100594020000830F4
:40168000FFF768FE310C2A0A4346684603700378D2B2C9B2380EFFF735FEEC2306AAD3580100594020000C30FFF754FE43B03CBC90469946A246AB46F0BDC046902B0000BB
:4016C000F0B593B00600019117001D00189C202200210AA800F052FA1022002106A800F04DFA1022002102A800F048FA1022390006A800F02EFA202201990AA800F029FAF8
:4017000016E006AA0AA902A8FFF73AFE06A8FFF729FE00230AE0297802AAD25C4A40327001360135013C002C02D001330F2BF2DD002CE6D113B0F0BDF0B55F4656464D4648
:401740004446F0B487B08A4607684368994683689C46C368039301694369029383690493C369059300264B460193814674E00F2333409B0053441A6890462F2E2CD8721C37
:401780000F20024092005446A25807241500E541AB460B341500E5412C005D466C40D20862404244340009340440A40055466459121934000E34204080002C581120250038
:4017C000C541AB4602302500C54128005D466840A40A60401018186002233A00DA4113000D223800D04109323C00D441434022005A40019C2000384063463B4043406046E2
:40180000204043409B1806220C00D44105320800D041020019200D00C541280062405040059A93465844029C0C40049D2A008A4362408018B400234AA45800194044013610
:401840000595029C04940291039A111862460392019CA44601971F183F2E88D9C846019B994643461B68DB194246136053684B445360936863449360039BD268944663446F
:401880004246D36013699C46614443461161029A5B699C46624443465A614246049B92699446634442469361059BD269944663444246D36107B03CBC90469946A246AB46CF
:4018C000F0BDC046B82F0000F0B59BB005000C00170012A93C480B00020043CA43C343CA43C303CA03C3002617E023781A06810063781B041343A27812021343E278134354
:4019000002AA8B500130043400E000200F28ECDD02A912A8FFF710FF0136BB099E42F4D34022002102A800F029F900210FE02378CA43D2001820024093408A08920002A8C7
:4019400010580190034302A81350013101343F233B409942EBD3BA080F2111400322BA43D2000732012090408A0002A951580191414002A81150372B08D9010012A8FFF7ED
:40198000DBFE4022002102A800F0F8F87B0F1093FF00119702A912A8FFF7CEFE00210EE012AB8A00D058000E2870D058000C6870D058000AA870D358EB70013104350729AB
:4019C000EEDD1BB0F0BDC046B8300000F0B54F4680B482B007000C0016001D0008AB1B7809AA12789146002B38D000230B664B6620223C492031200000F0A2F820002030CC
:401A00004022002100F0BAF828E0317803229A43D20091409A080832920010590143115101332366013D636E013363660136236E3F2B01D8002DE8D1402B0FD1203B9C466C
:401A4000A4446346019361462000FFF775FE0023236640220021019800F090F8002DE6D14B46002B39D0216E8A0803238B43DB00073301219940130008339B001A590A435A
:401A80001A513F23626E1340372B0AD92500203529002000FFF750FE40220021280000F06DF8636E5A0FA265DB00E365210020312000FFF741FE00220DE093001959090E94
:401AC00039701959090C79701959090AB9701B59FB7001320437072AEFDD02B004BC9146F0BDC046B8300000014B18687047C0463C0100200E4B70B500251E000D4CE41AF3
:401B0000A410A54204D0AB00F35898470135F8E701F0F4FA084B00251E00084CE41AA410A54204D0AB00F35898470135F8E770BD0831000008310000083100001031000013
:401B4000002310B59A4203D0CC5CC4540133F9E710BD10B5884202D98B18984201D3002305E09B1A013A08D3995C8154FAE7934203D0CC5CC4540133F9E710BD030082180E
:401B8000934202D019700133FAE7704702780B78002A03D0013001319A42F7D0D01A70470023C25C0133002AFBD1581E70470000000000002A2A2A2A2A454D5054592A2A3B
:401BC0002A2A2A0000000000000000000000000000000000000000000000000000000000000000000000000000000000000000000000000000000000000000000000000067
:401C000000000000000000000000000000000000000000000000000000000000000000000000000000000000000000000000000000000000000000000000000000000000A4
:401C40000000000000000000000000000000000000000000000000000000000000000000000000000000000000000000000000000000000000000000000000000000000064
:401C80000000000000000000000000000000000000000000000000000000000000000000000000000000000000000000000000000000000000000000000000000000000024
:401CC00000000000000000000000000000000000000000000000000000000000000000000000000000000000000000000000000000000000000000000000000000000000E4
:401D000000000000000000000000000000000000000000000000000000000000000000000000000000000000000000000000000000000000000000000000000000000000A3
:401D40000000000000000000000000000000000000000000000000000000000000000000000000000000000000000000000000000000000000000000000000000000000063
:401D80000000000000000000000000000000000000000000000000000000000000000000000000000000000000000000000000000000000000000000000000000000000023
:401DC00000000000000000000000000000000000000000000000000000000000000000000000000000000000000000000000000000000000000000000000000000000000E3
:401E000000000000000000000000000000000000000000000000000000000000000000000000000000000000000000000000000000000000000000000000000000000000A2
:401E40000000000000000000000000000000000000000000000000000000000000000000000000000000000000000000000000000000000000000000000000000000000062
:401E80000000000000000000000000000000000000000000000000000000000000000000000000000000000000000000000000000000000000000000000000000000000022
:401EC00000000000000000000000000000000000000000000000000000000000000000000000000000000000000000000000000000000000000000000000000000000000E2
:401F000000000000000000000000000000000000000000000000000000000000000000000000000000000000000000000000000000000000000000000000000000000000A1
:401F40000000000000000000000000000000000000000000000000000000000000000000000000000000000000000000000000000000000000000000000000000000000061
:401F80000000000000000000000000000000000000000000000000000000000000000000000000000000000000000000000000000000000000000000000000000000000021
:401FC00000000000000000000000000000000000000000000000000000000000000000000000000000000000000000000000000000000000000000000000000000000000E1
:4020000000000000000000000000000000000000000000000000000000000000000000000000000000000000000000000000000000000000000000000000000000000000A0
:402040000000000000000000000000000000000000000000000000000000000000000000000000000000000000000000000000000000000000000000000000000000000060
:402080000000000000000000000000000000000000000000000000000000000000000000000000000000000000000000000000000000000000000000000000000000000020
:4020C00000000000000000000000000000000000000000000000000000000000000000000000000000000000000000000000000000000000000000000000000000000000E0
:40210000000000000000000000000000000000000000000000000000000000000000000000000000000000000000000000000000000000000000000000000000000000009F
:40214000000000000000000000000000000000000000000000000000000000000000000000000000000000000000000000000000000000000000000000000000000000005F
:40218000000000000000000000000000000000000000000000000000000000000000000000000000000000000000000000000000000000000000000000000000000000001F
:4021C00000000000000000000000000000000000000000000000000000000000000000000000000000000000000000000000000000000000000000000000000000000000DF
:40220000000000000000000000000000000000000000000000000000000000000000000000000000000000000000000000000000000000000000000000000000000000009E
:40224000000000000000000000000000000000000000000000000000000000000000000000000000000000000000000000000000000000000000000000000000000000005E
:40228000000000000000000000000000000000000000000000000000000000000000000000000000000000000000000000000000000000000000000000000000000000001E
:4022C00000000000000000000000000000000000000000000000000000000000000000000000000000000000000000000000000000000000000000000000000000000000DE
:40230000000000000000000000000000000000000000000000000000000000000000000000000000000000000000000000000000000000000000000000000000000000009D
:40234000000000000000000000000000000000000000000000000000000000000000000000000000000000000000000000000000000000000000000000000000000000005D
:40238000000000000000000000000000000000000000000000000000000000000000000000000000000000000000000000000000000000000000000000000000000000001D
:4023C000000000000000000000000000000000000000000000000000626C616E00000000626C616E6B20757569642100000000000000000000000000000000000000000040
:4024000000000000000000000000000000000000496E20696E746572727570740A00000025303258000000002A2A2A2A2A454D5054592A2A2A2A2A004B00000042414500A9
:40244000524541445900000048534D5F5000000048534D5F4E000000474F000000300F40000400400F400004800F817A823804330501060C0A0814331604180A1A34240372
:40248000261428402A15301032603301340F38083A203E013F0440264103450C460B470E481549FF4AFF4BFF4EF04F44500C54015604580459045A045B045F0166C06A407B
:4024C0006B028110826384BC8508864388FF89388C088D048F80909F926093039403957F98E3993C9A1C9B429C109F04A002A120A404A547A738A81CAC01AD3CAF41B05C27
:40250000B180B23CB41FB53FB680B740B980BA22BB28BE40D602D713D804D904DB04DF010004030804280501060209080B140D020E26103814401601172818041A501B0801
:402540001C411D261E041F0222042428262827822D012E042F0235013628378039083E2A3F804004410848285080510458105A495C0163406D516E026F10762A77288740EB
:40258000C0F6C2F6C4F6CAD0CCF0CEF2D006D204D68FD80102030308060308030D010E030F02102112181304141316641708180319031C421D021E181F01230424F028F010
:4025C00029032C80308031033270330434033508360C3E403F14402441064203440145C047E0482249FF4AFF4BFF4C624DA04EF04F41500C54185604580459045A045B0418
:402600005F016640670269106A306B106D106E106F1284108531860C874689318B0E8C10940996109713996C9B039E039F08A014A180A41CA602A80CAA11AB4CB130B34A30
:40264000B50FB61FB780B902BB28BF41C005C540C9FFCA07CBFFCC40CD20CEF0CF05D008D804D904DA04DF01E040E1A8E240E320008404480501060408080A110C400E2A88
:402680000F80108013141540162017101A011B801D931E202252231425102601272028082B802D102E223008329034403504371A38043B103F8245A24604470848404A8EA8
:4026C0004E084F025008560259205B205D02652066806780811082C1834087408D12904C91509210971499049B129C409D019E01A080A120A208A408A610A740AD04AE0140
:40270000C0F5C2F5C4EECAA5CCFECE96D0F0D228D680D8B00E086E08712077028702C280DA80DC60E6400E406010801082408520A520C220D840E020E210E680100111013A
:4027400003000F4059300F403A310F406E320F4052330F4009400F400B410F4002600F40030405060708090A0B0C0E0F101112131415161718191B1C1D1E1F20212223255D
:40278000262728292A2B2E2F3031323334350000636363637C7C7C7C777777777B7B7B7BF2F2F2F26B6B6B6B6F6F6F6FC5C5C5C53030303001010101676767672B2B2B2B06
:4027C000FEFEFEFED7D7D7D7ABABABAB76767676CACACACA82828282C9C9C9C97D7D7D7DFAFAFAFA5959595947474747F0F0F0F0ADADADADD4D4D4D4A2A2A2A2AFAFAFAF49
:402800009C9C9C9CA4A4A4A472727272C0C0C0C0B7B7B7B7FDFDFDFD9393939326262626363636363F3F3F3FF7F7F7F7CCCCCCCC34343434A5A5A5A5E5E5E5E5F1F1F1F180
:4028400071717171D8D8D8D8313131311515151504040404C7C7C7C723232323C3C3C3C31818181896969696050505059A9A9A9A070707071212121280808080E2E2E2E238
:40288000EBEBEBEB27272727B2B2B2B27575757509090909838383832C2C2C2C1A1A1A1A1B1B1B1B6E6E6E6E5A5A5A5AA0A0A0A0525252523B3B3B3BD6D6D6D6B3B3B3B388
:4028C00029292929E3E3E3E32F2F2F2F8484848453535353D1D1D1D100000000EDEDEDED20202020FCFCFCFCB1B1B1B15B5B5B5B6A6A6A6ACBCBCBCBBEBEBEBE3939393948
:402900004A4A4A4A4C4C4C4C58585858CFCFCFCFD0D0D0D0EFEFEFEFAAAAAAAAFBFBFBFB434343434D4D4D4D333333338585858545454545F9F9F9F9020202027F7F7F7FF7
:40294000505050503C3C3C3C9F9F9F9FA8A8A8A851515151A3A3A3A3404040408F8F8F8F929292929D9D9D9D38383838F5F5F5F5BCBCBCBCB6B6B6B6DADADADA21212121DB
:4029800010101010FFFFFFFFF3F3F3F3D2D2D2D2CDCDCDCD0C0C0C0C13131313ECECECEC5F5F5F5F979797974444444417171717C4C4C4C4A7A7A7A77E7E7E7E3D3D3D3D8B
:4029C000646464645D5D5D5D191919197373737360606060818181814F4F4F4FDCDCDCDC222222222A2A2A2A909090908888888846464646EEEEEEEEB8B8B8B814141414E3
:402A0000DEDEDEDE5E5E5E5E0B0B0B0BDBDBDBDBE0E0E0E0323232323A3A3A3A0A0A0A0A4949494906060606242424245C5C5C5CC2C2C2C2D3D3D3D3ACACACAC62626262EE
:402A40009191919195959595E4E4E4E479797979E7E7E7E7C8C8C8C8373737376D6D6D6D8D8D8D8DD5D5D5D54E4E4E4EA9A9A9A96C6C6C6C56565656F4F4F4F4EAEAEAEA1A
:402A8000656565657A7A7A7AAEAEAEAE08080808BABABABA78787878252525252E2E2E2E1C1C1C1CA6A6A6A6B4B4B4B4C6C6C6C6E8E8E8E8DDDDDDDD747474741F1F1F1F5E
:402AC0004B4B4B4BBDBDBDBD8B8B8B8B8A8A8A8A707070703E3E3E3EB5B5B5B5666666664848484803030303F6F6F6F60E0E0E0E616161613535353557575757B9B9B9B96A
:402B000086868686C1C1C1C11D1D1D1D9E9E9E9EE1E1E1E1F8F8F8F8989898981111111169696969D9D9D9D98E8E8E8E949494949B9B9B9B1E1E1E1E87878787E9E9E9E951
:402B4000CECECECE5555555528282828DFDFDFDF8C8C8C8CA1A1A1A1898989890D0D0D0DBFBFBFBFE6E6E6E6424242426868686841414141999999992D2D2D2D0F0F0F0F0D
:402B8000B0B0B0B054545454BBBBBBBB1616161600000001000000020000000400000008000000100000002000000040000000800000001B00000036A56363C6847C7CF8CC
:402BC000997777EE8D7B7BF60DF2F2FFBD6B6BD6B16F6FDE54C5C5915030306003010102A96767CE7D2B2B5619FEFEE762D7D7B5E6ABAB4D9A7676EC45CACA8F9D82821F49
:402C000040C9C989877D7DFA15FAFAEFEB5959B2C947478E0BF0F0FBECADAD4167D4D4B3FDA2A25FEAAFAF45BF9C9C23F7A4A453967272E45BC0C09BC2B7B7751CFDFDE11A
:402C4000AE93933D6A26264C5A36366C413F3F7E02F7F7F54FCCCC835C343468F4A5A55134E5E5D108F1F1F9937171E273D8D8AB533131623F15152A0C04040852C7C795B6
:402C8000652323465EC3C39D28181830A19696370F05050AB59A9A2F0907070E361212249B80801B3DE2E2DF26EBEBCD6927274ECDB2B27F9F7575EA1B0909129E83831DB1
:402CC000742C2C582E1A1A342D1B1B36B26E6EDCEE5A5AB4FBA0A05BF65252A44D3B3B7661D6D6B7CEB3B37D7B2929523EE3E3DD712F2F5E97848413F55353A668D1D1B95C
:402D0000000000002CEDEDC1602020401FFCFCE3C8B1B179ED5B5BB6BE6A6AD446CBCB8DD9BEBE674B393972DE4A4A94D44C4C98E85858B04ACFCF856BD0D0BB2AEFEFC5EA
:402D4000E5AAAA4F16FBFBEDC5434386D74D4D9A5533336694858511CF45458A10F9F9E906020204817F7FFEF05050A0443C3C78BA9F9F25E3A8A84BF35151A2FEA3A35DF6
:402D8000C04040808A8F8F05AD92923FBC9D9D214838387004F5F5F1DFBCBC63C1B6B67775DADAAF63212142301010201AFFFFE50EF3F3FD6DD2D2BF4CCDCD81140C0C1882
:402DC000351313262FECECC3E15F5FBEA2979735CC4444883917172E57C4C493F2A7A755827E7EFC473D3D7AAC6464C8E75D5DBA2B191932957373E6A06060C0988181199F
:402E0000D14F4F9E7FDCDCA3662222447E2A2A54AB90903B8388880BCA46468C29EEEEC7D3B8B86B3C14142879DEDEA7E25E5EBC1D0B0B1676DBDBAD3BE0E0DB56323264BF
:402E40004E3A3A741E0A0A14DB4949920A06060C6C242448E45C5CB85DC2C29F6ED3D3BDEFACAC43A66262C4A8919139A495953137E4E4D38B7979F232E7E7D543C8C88BE6
:402E80005937376EB76D6DDA8C8D8D0164D5D5B1D24E4E9CE0A9A949B46C6CD8FA5656AC07F4F4F325EAEACFAF6565CA8E7A7AF4E9AEAE4718080810D5BABA6F887878F08A
:402EC0006F25254A722E2E5C241C1C38F1A6A657C7B4B47351C6C69723E8E8CB7CDDDDA19C7474E8211F1F3EDD4B4B96DCBDBD61868B8B0D858A8A0F907070E0423E3E7C2E
:402F0000C4B5B571AA6666CCD84848900503030601F6F6F7120E0E1CA36161C25F35356AF95757AED0B9B9699186861758C1C199271D1D3AB99E9E2738E1E1D913F8F8EB80
:402F4000B398982B33111122BB6969D270D9D9A9898E8E07A7949433B69B9B2D221E1E3C9287871520E9E9C949CECE87FF5555AA782828507ADFDFA58F8C8C03F8A1A159E0
:402F800080898909170D0D1ADABFBF6531E6E6D7C6424284B86868D0C3414182B0999929772D2D5A110F0F1ECBB0B07BFC5454A8D6BBBB6D3A16162C982F8A4291443771DD
:402FC000CFFBC0B5A5DBB5E95BC25639F111F159A4823F92D55E1CAB98AA07D8015B8312BE853124C37D0C55745DBE72FEB1DE80A706DC9B74F19BC1C1699BE48647BEEF2A
:40300000C69DC10FCCA10C246F2CE92DAA84744ADCA9B05CDA88F97652513E986DC631A8C82703B0C77F59BFF30BE0C64791A7D55163CA0667292914850AB72738211B2EE4
:40304000FC6D2C4D130D385354730A65BB0A6A762EC9C281852C7292A1E8BFA24B661AA8708B4BC2A3516CC719E892D1240699D685350EF470A06A1016C1A419086C371ECD
:403080004C774827B5BCB034B30C1C394AAAD84E4FCA9C5BF36F2E68EE828F746F63A5781478C8840802C78CFAFFBE90EB6C50A4F7A3F9BEF27871C667E6096A85AE67BB23
:4030C00072F36E3C3AF54FA57F520E518C68059BABD9831F19CDE05B67E6096A85AE67BB72F36E3C3AF54FA57F520E518C68059BABD9831F19CDE05B43000000F8B5C0464B
:40310000F8BC08BC9E4670471502000075070000F8B5C046F8BC08BC9E467047ED01000030310000C00000208000000068010000000000000100000000004C1D983A0000CF
:403140000F000000C0E1E400040404000000000000000000000000000000000000000000000000000000000000000000F83000000000000000000000000000000000000087
:403180000000000000000000000000000000000000000000000000000000000000000000000000000000000000000000DC0000200000000000000000000000000000000013
:4031C00000000000000000000000000000000000000000000000000000000000000000000000000000000000000000000000000000000000000000000000000000000000CF
:40320000000000000000000000000000000000000000000000000000000000000000000000000000000000000000000000000000000000000000000000000000000000008E
:40324000000000000000000000000000000000000000000000000000000000000000000000000000000000000000000000000000000000000000000000000000000000004E
:40328000000000000000000000000000000000000000000000000000000000000000000000000000000000000000000000000000000000000000000000000000000000000E
:0200000490303A
:02000000DCCA58
:0200000490402A
:200000000000000000000000000000000000000000000000000000000000000000000000E0
:0200000490501A
:0C000000000204C81193110004D6EE5D4C
:0200000490600A
:0100000002FD
:00000001FF