:400000000010002011000000B5040000B504000010B500F057FAC04670B5164C23688022D20213432360182000F0C2FD2268124B13402360114A124B1A601022114B1A60C2
:400040001032114B1A6080221206104B1A60002525600F4A0F4B1A600F4A104B1A601049092000F057FD092000F03EFD0D4B1D6070BDC04600010B40FFFFFBFF06000080E8
:4000800004010B40080202403002024008010B4010000080000002401900008040000240C10D00000C020B4070B572B60122414B1A7000240FE040486200131959000B00B5
:4000C000411889881A5AC31858880004104300F0E7F90134E4B2022CEDD9002411E0364EA2001319590071188D8AC88A000428430A8B498B09041143802200F0D7F90134FF
:40010000E4B2002CEBD02C4920312C48583000F0ADF9802252002A4B1A80FF3A294B1A70C0229203284B1A60EE221202274B1A609922274B1A6099231B04264A1360264968
:40014000264A116080218904254A11608021C904244A1160244A13600D22244B1A600132234B1A6023490B782E32934314221343DBB20B70204A117816230B43DBB21370EC
:400180008022D2031D4B1A6020221D4B1A60C42292021C4B1A60D82212011B4B1A6002231A4A136031211A4A11601A4A1360FFF733FF70BD1C700F40C4100000C4120000A6
:4001C00000600F4002600F40040001400C0001401000014000500F400400990010500F4014500F4018500F4030500F402000004000800F4001700F4000700F40080004409E
:4002000000010440080104400803044000040440080404401804044010B5064C2378002B07D1054B002B02D0044800E000BF0123237010BD400100200000000030100000D3
:40024000084B10B5002B03D00749084800E000BF07480368002B00D110BD064B002BFBD09847F9E7000000004401002030100000C00000200000000010B50D21034800F0ED
:4002800097F800F00FFB00F07DFC10BD8010000010B590B0012000F0AFF801210E4800F087F8684600F094F80C4C20222100684600F04EF921001431082208A800F048F910
:4002C00021001C3124220AA800F042F90121044800F06EF810B010BD90100000341000009410000010B5A2B062B6264800F0CCFA00F02CF900F08AF94023234AD35C002B8F
:400300000AD1FFF7C5FF872068440123037001221D49403100F01CF9002000F06DF801A800F056F808221849443101A800F06EFE002804D00321154800F03AF8ECE7022149
:40034000134800F035F801AC200000F041F80121104800F02DF82378332B0DD101A800F037F808220849443101A800F0F1F80721094800F01DF8CFE7242103481C3000F06F
:4003800017F8C9E77902000034100000981000009C10000094100000A010000010B500F05FF90028FBD000F027FAC0B210BDC04670B506000D00080000F066F9002403E02B
:4003C000305D00F061F90134AC42F9DB002070BDF0B583B00600FFF7E1FF01900700002404E03519FFF7DAFF28700134BC42F8DB019803B0F0BDC04610B588B00400684625
:40040000FFF7E6FF1449684600F0EFFD002809D0684600F0F4FDC1B26846FFF7C9FF0F4B009310E0002C07D006210D48FFF7C0FF6846FFF7CDFF06E006210A48FFF7B8FFFE
:400440006846FFF7C5FF0849684600F0CEFD0028D5D108B010BDC046A810000042414400B0100000B8100000C0100000F0B50025002711E0BB00C658F3B2FF22964308E0E8
:400480006A008A181478A419527822700135013BDBB2002BF4D10137072FEBD9F0BDC04610B50A00002100F098FD10BD10B500F08BFD10BD10B500F05BFD03680C2B00D1EB
:4004C000FEE7FEE770B50F4E0F4D13E029686B68AC68002202E001C901C30432A242FAD1E868002202E0002102C304328242FAD11035013E002EE9D100F040FDFFF7F2FEF4
:40050000FEE7C046010000001014000010B500230AE0032B03D89A000949505800E009489900094A885001332F2BF2D9FFF7BCFD8022D205116801230B43136010BDC04695
:4005400000000000B5040000000000207047C046F0B54F464646C0B4A1B0804617000E008A1880231B029A4229D8CC0BC909FF230B40994624024C44E4010020002519E062
:40058000B44207D3BD4205D24246525D6946CA54013502E022786946CA540134013300E000237F2BECD96946484600F099F901239C46E144BD4203D20028F1D000E001208F
:4005C000012801D90120404221B00CBC90469946F0BDC04610B50A2000F086FA10BDC04610B500F0F7F810BD10B500F085F810BD10B5054A1368802109060B431360FFF7BC
:40060000E9FFFFF7EDFF10BD0000064010B5064B1B78002B04D1FFF7E7FF0122024B1A70FFF7E6FF10BDC0465C010020094B1A68094B1B689A420BD0074B1B680133812B1A
:4006400000D10023054AD05CC0B2034A136000E00020704714020020900100201C020020074B1B68074A1268934203D3054A1068181A04E0034A10681B1A81331800704758
:400680001402002090010020144B1A68144B1B689A4208D1134B1B680F221340082B02D0114B186019E00D4B1A680132802A00D100220B4B1B689A42FBD002230B490B6096
:4006C000C0B20B49885405490A600A4A1268134203D1084A11680B4313607047180200208C0100200802064040020640800F064094010020880F064010B51E4A1E4B1A6030
:4007000000241E4B1C6001221D4B1A601D4B1E490B6007201D4908601D490C601D490A601D4A13601D4B1C60033000F0E7F903210A2000F001FA1A490A2000F0EBF9194B1B
:400740001C60194B1C60194B1C60194B1C600422184B1A60184B1C601A68184B1A80184B1C60184B1C60184B1C70184B1C60184B1C6010BD0B0000020000064040000640EB
:4007800048000640070000800003064004030640100306404400064000020640040206408D0E0000880E0640C80E0640480F0640080F0640C80F0640880F0640640100200B
:4007C00014020020900100209D020020180200208C01002005490B68F0229343603A13430B60034B1A88034B1A6070471000014064010020880F064010B50A2000F07EF9F0
:40080000FFF72EFF002806D00A2000F06DF9FFF70DFF040007E0094B1C680422084B1A600A2000F061F9064B1868D82292001A600002D8239B021840204310BD4003064069
:40084000C00F0640014B18647047C0460000002010B5040000F012FB044A1368C0218B43A4011C43146000F00DFB10BD00E400E00122014B1A60704700E100E00122014BAF
:400880001A60704780E100E010B50400FFF7F6FF2000FFF7D7FF0320FFF7DAFFFFF7E8FF10BDC046034B1868C0B27F2290431860C009704710000440024B1A68024B1A60EE
:4008C0000020704708010B4068010020024B1A68024B1A60002070476801002008010B40F0B5A7B00500002325932493FF2800D9E4E0002900D1E1E0802204A800F064FB4B
:40090000022300200021002408E09A0002AE9259002A02D0891810431C000133212BF4D9002903D1002803D1002602E0002600E00126002E06D0A30002AA9F58002202A972
:400940005A5000E00027604B02937F2303935F4B02AA1A605E495F4A1160C0461B681B0F1B07F0221206934204D1584B1B68FF2213400BE0554B1B681B0F1B07A022120646
:40098000934202D0514B1B6800E000232593259B002B00D094E000F071FA0190FFF78CFF2490259B002B25D14B4B0293029A2B0413430293454B02AA1A604849454A11605D
:4009C000C0461B681B0F1B07F0221206934204D13E4B1B68FF2213400BE03C4B1B681B0F1B07A0221206934202D0384B1B6800E000232593259B002B56D1002E54D0802245
:400A0000002104A800F0E9FAA40002ABE7502E4B02937F2303932D4B02AA1A602C492D4A1160C0461B681B0F1B07F0221206934204D1264B1B68FF2213400BE0234B1B6860
:400A40001B0F1B07A0221206934202D01F4B1B6800E000232593259B002B25D1204B0293029B2D041D430295184B02AA1A601D49184A1160C0461B681B0F1B07F02212069A
:400A8000934204D1114B1B68FF2213400BE00F4B1B681B0F1B07A0221206934202D00B4B1B6800E000232593249B002B02D1FFF70DFF2490019800F0E5F901E00423259376
:400AC000259827B0F0BDC046B6D70000080000400400008004000040B6D8000005000080B6D90000060000801F2318401E3B8340014A13607047C04600E100E01F2318405E
:400B00001E3B8340014A13607047C04680E100E001BE704770B504000D001F2802D90020FFF7F6FF1034A40080239B059C4664442068256070BDC04670B504000E000329AC
:400B400002D90020FFF7E4FF1F2C02D90020FFF7DFFF03252540ED00063500F08FF9A408A400074B9C46644421680323AB4099430B003100A9401943216000F083F970BD1D
:400B800000E400E0034A13681B041B0C02490B43136070470CED00E00400FA0510B5034B1B7B584300F060F910BDC046C4000020F0B557464E46C0B483B0040000F05EF9B8
:400BC0000190E71E2D2F74D83F4B1B78DBB29C4208D83E4B1B78DBB29A463D4B1B78DBB2994631E03B4B1B78DBB29C4208D83A4B1B78DBB29A46394B1B78DBB2994623E0BF
:400C0000374B1B78DBB29C4208D8364B1B78DBB29A46354B1B78DBB2994615E0334B1B78DBB29C4208D8324B1B78DBB29A46314B1B78DBB2994607E02F4B1B78DBB29A46AA
:400C40002E4B1B78DBB299462D4BDE5D2F2E09D92A2C07D919222B4B1A60052000F004F9192503E0274B1D683F231D40B54206D9234BDA5D234B1A60052000F0F5F81F4BF1
:400C80009C4664442378DBB21F4A13601F4B52461A601F4B4A461A600520FFF77FFFB5420AD2174BDA5D174B1A60052000F0DCF802E00020FFF72CFF019800F0E3F803B0B2
:400CC0000CBC91469A46F0BDC0F1FF0FC1F1FF0FC2F1FF0FC3F1FF0FC4F1FF0FC5F1FF0FC6F1FF0FC7F1FF0FC8F1FF0FC9F1FF0FCAF1FF0FCBF1FF0FCCF1FF0FCDF1FF0FFB
:400D0000BC1300002CFF0B4028FF0B401CFF0B4020FF0B40034B1868C0231B02184000D00120704700010B4010B500F0A7F8044A1368C02109020B43136000F0A3F810BDF0
:400D400000010B4010B500F099F808490A68084B1A408024E40122430A600A6813408022120213430B6000F08DF810BD00010B40FF3FFFFF70B5050000F080F80400FFF787
:400D8000C9FF002803D0FFF7DDFF012100E0002108482840084A1568084B2B40184310601368012901D1FFF7BFFF200000F06AF870BDC0460404040010020B40FBFBFBFF42
:400DC00010B5244B1B685B0715D5234B1B685B070ED5224BD969042001401F4C22688A432260DA698243DA611B69002B00D098470420FFF7BFFF174B1B685B0518D5164B56
:400E00001B685B0510D5154BD9698022D2001140114802688A430260D969114A0A40DA615B69002B00D098478020C000FFF7A2FF084B1B685B030CD5074B1B685B0304D5B9
:400E4000064B9B69002B00D098478020C002FFF791FF10BD10020B40D80000206C010020FFFBFFFF000000000230800804D0C0460138FDD1C046C046C0467047EFF31080DE
:400E800072B6704780F310887047C04610B5274B1B68002B00D09847254B1B685B071DD5244B1B680133812B00D10023224A1268934205D1214B1B682022214B1A7006E04C
:400EC0001E4A1268D2B21F49CA541A4A13601E4B1B681B07E4D104221C4B1A601C4B1B689B0721D51B4B1A681B4B1B689A4213D0194B1B680133802B00D10023174AD25C0A
:400F0000D2B217490A60144A1360164B1B680F221340082BE6D104E0134A136802218B4313600222114B1A6010BDC04660010020CC0F064014020020900100204003064041
:400F40009D0200201C02002008030640C00F06408C0F0640180200208C010020940100204002064008020640880F0640800F0640014B18687047C0463C0100200E4B70B5A3
:400F800000251E000D4CE41AA410A54204D0AB00F35898470135F8E700F028FA084B00251E00084CE41AA410A54204D0AB00F35898470135F8E770BDF8130000F8130000A8
:400FC000F813000000140000002310B59A4203D0CC5CC4540133F9E710BD03008218934202D019700133FAE7704702780B78002A03D0013001319A42F7D0D01A70470023BD
:40100000C25C0133002AFBD1581E7047002330B59A420BD0013AC45CCD5CAC4205D19A4202D00133002CF6D12500631B180030BD00000000626C616E6B206B6579212121E3
:401040002121212100000000626C616E000000003733363536333735373236393734373900000000000000000000000000000000000000000000000036353433353434364D
:40108000496E20696E746572727570740A000000500000004B000000424144004F4B000053554343455353005245414459000000434152445F500000434152445F4E000048
:4010C000474F000000300F40800000310F40000300400F400004000080300F403C1300008000000080388172820F02020408120115011E0426012E023001320833013402B4
:4011000036043E153F0454185604580459045B045F01000802800488052109020B010D280E0210221402172A180419881B011D2A1E011F28231026A727042D802F28320495
:40114000362A3EAA452247444C244E0854025A015E08600463426E146F01762A772A8740C0FCC2E9C4F5CA70CCE2CEF0D0F0D220D641D80D001301010204030A040A051393
:401180000614081309130A0C0C400E2011101208142016C018E019021B091C031E14261528802A202B042CE03010310C32E03303340F35103A203E013F014036410146B045
:4011C00047CE483849FF4AFF4BFF4EF04F44500C54015604580459045A045B045F0166C06A406B028414858087138C0C8E718F0C900992D094DC952C9622974399719A03C2
:401200009B069F08A010A171A240A30EA410A6ACAA20B0E0B1C0B30FB41FB530B922BA02BB08BF10C002C540C9FFCA07CBFFCC40CD20CEF0CF05D008D804D904DA04DF0199
:40124000E040E1A8E240E320004002100480051509080A080B400E240F421090120815881710184019011A081D101E601F042004210823402408275029012A022D202F04B6
:401280003090311C371139083B403E143F0140044410460248804E08510452085404561057015D185E405F0267808040828083018404874289108B01918092149488960840
:4012C000970199089B019D209E809F50A404B310B402B541B630B710C0F5C2FEC4EECA21CCAECEEAD054D220D6F0D880EE800E086D016E0873028702C280DA80DC60E640AF
:401300000A105F088210850195019B08B308C210D680E080E21010011101000003000F4014300F4031310F406A320F4053330F4009400F400B410F4002600F4082100000B7
:401340000008F300C318000041040000003C00420F00F003F37F0C001C00E30008000000046700180C3C0041FF0000041C1F2C200F00C040008028220000000426030400AD
:40138000010C00E021FFFFFF62A0F0410C000000000002120404040400000001000000000000400200103010001010120000000000000000000000000000000003040506E8
:4013C0000708090A0B0C0E0F101112131415161718191B1C1D1E1F2021222325262728292A2B2E2F3031323334354300F8B5C046F8BC08BC9E467047410200000D050000B1
:40140000F8B5C046F8BC08BC9E4670471902000020140000C0000020800000006001000000000000010000000000E02EC05D00001800000000366E010404040000000000E1
:4014400000000000000000000000000000000000000000000000000000000000EA13000000000000000000000000000000000000000000000000000000000000000000006F
:4014800000000000000000000000000000000000000000000000000000000000DC000020000000000000000000000000000000000000000000000000000000000000000030
:4014C00000000000000000000000000000000000000000000000000000000000000000000000000000000000000000000000000000000000000000000000000000000000EC
:4015000000000000000000000000000000000000000000000000000000000000000000000000000000000000000000000000000000000000000000000000000000000000AB
:40154000000000000000000000000000000000000000000000000000000000000000000000000000000000000000000000000000000000000000000000000000000000006B
:40158000000000000000000000000000000000000000000000000000000000000000000000000000000000000000000000000000000000000000000000000000000000002B
:0200000490303A
:02000000435368
:0200000490402A
:200000000000000000000000000000000000000000000000000000000000000000000000E0
:0200000490501A
:0C000000000204C81193110104CE54E664
:0200000490600A
:0100000001FE
:00000001FF