:400000000010002011000000410500004105000010B500F09DFAC04670B5164C23688022D20213432360182000F008FE2268124B13402360114A124B1A601022114B1A601B
:400040001032114B1A6080221206104B1A60002525600F4A0F4B1A600F4A104B1A601049092000F09DFD092000F084FD0D4B1D6070BDC04600010B40FFFFFBFF060000805C
:4000800004010B40080202403002024008010B40100000800000024019000080400002404D0E00000C020B4070B572B60122414B1A7000240FE040486200131959000B0028
:4000C000411889881A5AC31858880004104300F02DFA0134E4B2022CEDD9002411E0364EA2001319590071188D8AC88A000428430A8B498B09041143802200F01DFA013471
:40010000E4B2002CEBD02C4920312C48583000F0F3F9802252002A4B1A80FF3A294B1A70C0229203284B1A60EE221202274B1A609922274B1A6099231B04264A1360264922
:40014000264A116080218904254A11608021C904244A1160244A13600D22244B1A600132234B1A6023490B782E32934314221343DBB20B70204A117816230B43DBB21370EC
:400180008022D2031D4B1A6020221D4B1A60C42292021C4B1A60D82212011B4B1A6002231A4A136031211A4A11601A4A1360FFF733FF70BD1C700F40E4150000E41700005C
:4001C00000600F4002600F40040001400C0001401000014000500F400400990010500F4014500F4018500F4030500F402000004000800F4001700F4000700F40080004409E
:4002000000010440080104400803044000040440080404401804044010B5064C2378002B07D1054B002B02D0044800E000BF0123237010BD400100200000000054150000AA
:40024000084B10B5002B03D00749084800E000BF07480368002B00D110BD064B002BFBD09847F9E7000000004401002054150000C00000200000000010B50D21034800F0C4
:40028000DDF800F055FB00F0C3FC10BDA4150000030008003038C0B2092810D90A00613AD2B2052A02D85739C8B208E00A00413AD2B2052A02D83739C8B200E000201A00BB
:4002C000303AD2B2092A04D8303B1B011843C0B212E01A00613AD2B2052A04D8573B1B011843C0B208E01A00413AD2B2052A03D8373B1B011843C0B27047C04610B5B4B0B0
:400300006D22002118A801F00BF9012000F0BAF80121154800F092F818A800F09FF8402218A908A801F0DEF8002409E06300591C08AA515CD05CFFF7ABFF6B461855013458
:400340001F2CF3DD094C20222100684600F046F921002431242228A800F040F90121044800F06CF834B010BDBC15000058150000C015000070B5B6B062B6274800F0CAFACC
:4003800000F02AF900F088F94823244AD35C002B0AD1FFF7B3FFD72068440123037001221E49483100F01AF9002000F06BF815AC200000F053F80121194800F03FF82378EF
:4003C000332B05D124211548243000F037F8EBE7322BE9D115A800F041F8159B02930221104800F02BF80BAB0C4918000A00243270CA70C070CA70C070CA70C0029A5A62F9
:4004000028220092083A03A800F058FE202103A800F014F8C8E7C0467902000058150000C0150000C415000010B500F05FF90028FBD000F027FAC0B210BDC04670B50600F9
:400440000D00080000F066F9002403E0305D00F061F90134AC42F9DB002070BDF0B583B00600FFF7E1FF01900700002404E03519FFF7DAFF28700134BC42F8DB019803B09B
:40048000F0BDC04610B588B004006846FFF7E6FF1449684601F04CF8002809D0124B0093684601F04FF8C1B26846FFF7C7FF10E0002C07D006210D48FFF7C0FF6846FFF743
:4004C000CDFF06E006210A48FFF7B8FF6846FFF7C5FF0849684601F02BF80028D5D108B010BDC046C815000042414400D0150000D8150000E0150000F0B50025002711E003
:40050000BB00C658F3B2FF22964308E06A008A181478A419527822700135013BDBB2002BF4D10137072FEBD9F0BDC04610B50A00002100F0F5FF10BD10B500F0D3FF10BDE1
:4005400010B500F0A3FF03680C2B00D1FEE7FEE770B50F4E0F4D13E029686B68AC68002202E001C901C30432A242FAD1E868002202E0002102C304328242FAD11035013EA4
:40058000002EE9D100F088FFFFF7F4FEFEE7C04601000000741A000010B500230AE0032B03D89A000949505800E009489900094A885001332F2BF2D9FFF776FD8022D205DB
:4005C000116801230B43136010BDC0460000000041050000000000207047C046F0B54F464646C0B4A1B0804617000E008A1880231B029A4229D8CC0BC909FF230B409946FD
:4006000024024C44E4010020002519E0B44207D3BD4205D24246525D6946CA54013502E022786946CA540134013300E000237F2BECD96946484600F099F901239C46E144F3
:40064000BD4203D20028F1D000E00120012801D90120404221B00CBC90469946F0BDC04610B50A2000F086FA10BDC04610B500F0F7F810BD10B500F085F810BD10B5054A5F
:400680001368802109060B431360FFF7E9FFFFF7EDFF10BD0000064010B5064B1B78002B04D1FFF7E7FF0122024B1A70FFF7E6FF10BDC0465C010020094B1A68094B1B6824
:4006C0009A420BD0074B1B680133812B00D10023054AD05CC0B2034A136000E00020704714020020900100201C020020074B1B68074A1268934203D3054A1068181A04E0E9
:40070000034A10681B1A8133180070471402002090010020144B1A68144B1B689A4208D1134B1B680F221340082B02D0114B186019E00D4B1A680132802A00D100220B4BA6
:400740001B689A42FBD002230B490B60C0B20B49885405490A600A4A1268134203D1084A11680B4313607047180200208C0100200802064040020640800F0640940100208E
:40078000880F064010B51E4A1E4B1A6000241E4B1C6001221D4B1A601D4B1E490B6007201D4908601D490C601D490A601D4A13601D4B1C60033000F0E7F903210A2000F06E
:4007C00001FA1A490A2000F0EBF9194B1C60194B1C60194B1C60194B1C600422184B1A60184B1C601A68184B1A80184B1C60184B1C60184B1C70184B1C60184B1C6010BD84
:400800000B00000200000640400006404800064007000080000306400403064010030640440006400002064004020640150F0000880E0640C80E0640480F0640080F0640A7
:40084000C80F0640880F06406401002014020020900100209D020020180200208C01002005490B68F0229343603A13430B60034B1A88034B1A607047100001406401002023
:40088000880F064010B50A2000F07EF9FFF72EFF002806D00A2000F06DF9FFF70DFF040007E0094B1C680422084B1A600A2000F061F9064B1868D82292001A600002D82364
:4008C0009B021840204310BD40030640C00F0640014B18647047C0460000002010B5040000F010FB044A1368C0218B43A4011C43146000F00BFB10BD00E400E00122014BE6
:400900001A60704700E100E00122014B1A60704780E100E010B50400FFF7F6FF2000FFF7D7FF0320FFF7DAFFFFF7E8FF10BDC046034B1868C0B27F2290431860C0097047F6
:4009400010000440024B1A68024B1A600020704708010B4068010020024B1A68024B1A60002070476801002008010B40F0B5A7B00500002325932493FF2800D9E4E000290F
:4009800000D1E1E0802204A800F0ACFD022300200021002408E09A0002AE9259002A02D0891810431C000133212BF4D9002903D1002803D1002602E0002600E00126002E62
:4009C00006D0A30002AA9F58002202A95A5000E00027604B02937F2303935F4B02AA1A605E495F4A1160C0461B681B0F1B07F0221206934204D1584B1B68FF2213400BE026
:400A0000554B1B681B0F1B07A0221206934202D0514B1B6800E000232593259B002B00D094E000F06FFA0190FFF78CFF2490259B002B25D14B4B0293029A2B0413430293DC
:400A4000454B02AA1A604849454A1160C0461B681B0F1B07F0221206934204D13E4B1B68FF2213400BE03C4B1B681B0F1B07A0221206934202D0384B1B6800E00023259383
:400A8000259B002B56D1002E54D08022002104A800F046FDA40002ABE7502E4B02937F2303932D4B02AA1A602C492D4A1160C0461B681B0F1B07F0221206934204D1264B4D
:400AC0001B68FF2213400BE0234B1B681B0F1B07A0221206934202D01F4B1B6800E000232593259B002B25D1204B0293029B2D041D430295184B02AA1A601D49184A116046
:400B0000C0461B681B0F1B07F0221206934204D1114B1B68FF2213400BE00F4B1B681B0F1B07A0221206934202D00B4B1B6800E000232593249B002B02D1FFF70DFF24901D
:400B4000019800F0E3F901E004232593259827B0F0BDC046B6D70000080000400400008004000040B6D8000005000080B6D90000060000801F2318401E3B8340014A1360D0
:400B80007047C04600E100E01F2318401E3B8340014A13607047C04680E100E001BE704770B504000D001F2802D90020FFF7F6FF1034A40080239B059C46644420682560AA
:400BC00070BDC04670B504000E00032902D90020FFF7E4FF1F2C02D90020FFF7DFFF03252540ED00063500F08DF9A408A400074B9C46644421680323AB4099430B00310068
:400C0000A9401943216000F081F970BD00E400E0034A13681B041B0C02490B43136070470CED00E00400FA0510B5034B1B7B584300F05EF910BDC046C4000020F0B5574662
:400C40004E46C0B483B0040000F05CF90190E71E2D2F74D83F4B1B78DBB29C4208D83E4B1B78DBB29A463D4B1B78DBB2994631E03B4B1B78DBB29C4208D83A4B1B78DBB220
:400C80009A46394B1B78DBB2994623E0374B1B78DBB29C4208D8364B1B78DBB29A46354B1B78DBB2994615E0334B1B78DBB29C4208D8324B1B78DBB29A46314B1B78DBB204
:400CC000994607E02F4B1B78DBB29A462E4B1B78DBB299462D4BDE5D2F2E09D92A2C07D919222B4B1A60052000F002F9192503E0274B1D683F231D40B54206D9234BDA5D87
:400D0000234B1A60052000F0F3F81F4B9C4664442378DBB21F4A13601F4B52461A601F4B4A461A600520FFF77FFFB5420AD2174BDA5D174B1A60052000F0DAF802E0002019
:400D4000FFF72CFF019800F0E1F803B00CBC91469A46F0BDC0F1FF0FC1F1FF0FC2F1FF0FC3F1FF0FC4F1FF0FC5F1FF0FC6F1FF0FC7F1FF0FC8F1FF0FC9F1FF0FCAF1FF0FA5
:400D8000CBF1FF0FCCF1FF0FCDF1FF0FDC1800002CFF0B4028FF0B401CFF0B4020FF0B40034B1868C0231B02184000D00120704700010B4010B500F0A5F8044A1368C02110
:400DC00009020B43136000F0A1F810BD00010B4010B500F097F808490A68084B1A408024E40122430A600A6813408022120213430B6000F08BF810BD00010B40FF3FFFFF75
:400E000070B5050000F07EF80400FFF7C9FF002803D0FFF7DDFF012100E0002108482840084A1568084B2B40184310601368012901D1FFF7BFFF200000F068F870BDC04692
:400E40000404040010020B40FBFBFBFF10B5244B1B685B0715D5234B1B685B070ED5224BD969042001401F4C22688A432260DA698243DA611B69002B00D098470420FFF7CD
:400E8000BFFF174B1B685B0518D5164B1B685B0510D5154BD9698022D2001140114802688A430260D969114A0A40DA615B69002B00D098478020C000FFF7A2FF084B1B6833
:400EC0005B030CD5074B1B685B0304D5064B9B69002B00D098478020C002FFF791FF10BD10020B40D80000206C010020FFFBFFFF0230800804D0C0460138FDD1C046C04642
:400F0000C0467047EFF3108072B6704780F310887047C04610B5274B1B68002B00D09847254B1B685B071DD5244B1B680133812B00D10023224A1268934205D1214B1B68BA
:400F40002022214B1A7006E01E4A1268D2B21F49CA541A4A13601E4B1B681B07E4D104221C4B1A601C4B1B689B0721D51B4B1A681B4B1B689A4213D0194B1B680133802BEE
:400F800000D10023174AD25CD2B217490A60144A1360164B1B680F221340082BE6D104E0134A136802218B4313600222114B1A6010BDC04660010020CC0F06401402002078
:400FC00090010020400306409D0200201C02002008030640C00F06408C0F0640180200208C010020940100204002064008020640880F0640800F0640F0B585B004000D0062
:4010000003921E000CAB1B780DAA1778002B29D0A8220021280000F083FA402E07D9280068303200039900F021F900220DE0280068303200039900F05EFAF6E7AB186833C3
:40104000187836214140197001323F2AF6D92A00683200230193013300933F332900002000F086F90197002300930B9B0A9A2900200000F07DF9002F08D11DE0AB186833FE
:4010800018786A2141401970013200E000223F2AF4D92A006832002601960127009740232900002000F064F901970096202322002900200000F05CF905B0F0BD10B5AEB0C1
:4010C000012403940294309C0194009313000A0004A9FFF791FF2EB010BDC046F0B55F4656464D464446F0B487B08A4607684368994683689C46C3680393016943690293C9
:4011000083690493C369059300264B460193814674E00F2333409B0053441A6890462F2E2CD8721C0F20024092005446A25807241500E541AB460B341500E5412C005D46AD
:401140006C40D20862404244340009340440A40055466459121934000E34204080002C5811202500C541AB4602302500C54128005D466840A40A60401018186002233A00A1
:40118000DA4113000D223800D04109323C00D441434022005A40019C2000384063463B4043406046204043409B1806220C00D44105320800D041020019200D00C541280097
:4011C00062405040059A93465844029C0C40049D2A008A4362408018B400234AA4580019404401360595029C04940291039A111862460392019CA44601971F183F2E88D972
:40120000C846019B994643461B68DB194246136053684B445360936863449360039BD268944663444246D36013699C46614443461161029A5B699C46624443465A614246D2
:40124000049B92699446634442469361059BD269944663444246D36107B03CBC90469946A246AB46F0BDC0460C190000F0B59BB005000C00170012A93C480B00020043CA39
:4012800043C343CA43C303CA03C3002617E023781A06810063781B041343A27812021343E278134302AA8B500130043400E000200F28ECDD02A912A8FFF710FF0136BB0950
:4012C0009E42F4D34022002102A800F029F900210FE02378CA43D2001820024093408A08920002A810580190034302A81350013101343F233B409942EBD3BA080F211140F7
:401300000322BA43D2000732012090408A0002A951580191414002A81150372B08D9010012A8FFF7DBFE4022002102A800F0F8F87B0F1093FF00119702A912A8FFF7CEFEBE
:4013400000210EE012AB8A00D058000E2870D058000C6870D058000AA870D358EB70013104350729EEDD1BB0F0BDC0460C1A0000F0B54F4680B482B007000C0016001D007D
:4013800008AB1B7809AA12789146002B38D000230B664B6620223C492031200000F0A2F8200020304022002100F0BAF828E0317803229A43D20091409A08083292001059D7
:4013C0000143115101332366013D636E013363660136236E3F2B01D8002DE8D1402B0FD1203B9C46A4446346019361462000FFF775FE0023236640220021019800F090F870
:40140000002DE6D14B46002B39D0216E8A0803238B43DB00073301219940130008339B001A590A431A513F23626E1340372B0AD92500203529002000FFF750FE4022002176
:40144000280000F06DF8636E5A0FA265DB00E365210020312000FFF741FE00220DE093001959090E39701959090C79701959090AB9701B59FB7001320437072AEFDD02B0D6
:4014800004BC9146F0BDC0460C1A0000014B18687047C0463C0100200E4B70B500251E000D4CE41AA410A54204D0AB00F35898470135F8E700F0CCFA084B00251E00084CC5
:4014C000E41AA410A54204D0AB00F35898470135F8E770BD5C1A00005C1A00005C1A0000641A0000002310B59A4203D0CC5CC4540133F9E710BD10B5884202D98B189842E9
:4015000001D3002305E09B1A013A08D3995C8154FAE7934203D0CC5CC4540133F9E710BD03008218934202D019700133FAE7704702780B78002A03D0013001319A42F7D0F7
:40154000D01A70470023C25C0133002AFBD1581E7047000000000000000000000000000000000000000000000000000000000000000000000000000000000000373336355D
:40158000363337353732363937343739000000000000000000000000000000000000000000000000496E20696E746572727570740A000000253032580000000050000000A6
:4015C0004B0000004F4B00005245414459000000434152445F500000434152445F4E0000474F000000300F40800000310F40000300400F400004000080300F405C180000E3
:401600008000000080388172820F02020408120115011E0426012E02300132083301340236043E153F0454185604580459045B045F01000802800488052109020B010D28D1
:401640000E0210221402172A180419881B011D2A1E011F28231026A727042D802F283204362A3EAA452247444C244E0854025A015E08600463426E146F01762A772A8740CC
:40168000C0FCC2E9C4F5CA70CCE2CEF0D0F0D220D641D80D001301010204030A040A05130614081309130A0C0C400E2011101208142016C018E019021B091C031E1426157F
:4016C00028802A202B042CE03010310C32E03303340F35103A203E013F014036410146B047CE483849FF4AFF4BFF4EF04F44500C54015604580459045A045B045F0166C0A1
:401700006A406B028414858087138C0C8E718F0C900992D094DC952C9622974399719A039B069F08A010A171A240A30EA410A6ACAA20B0E0B1C0B30FB41FB530B922BA0245
:40174000BB08BF10C002C540C9FFCA07CBFFCC40CD20CEF0CF05D008D804D904DA04DF01E040E1A8E240E320004002100480051509080A080B400E240F42109012081588CD
:401780001710184019011A081D101E601F042004210823402408275029012A022D202F043090311C371139083B403E143F0140044410460248804E08510452085404561069
:4017C00057015D185E405F0267808040828083018404874289108B019180921494889608970199089B019D209E809F50A404B310B402B541B630B710C0F5C2FEC4EECA2194
:40180000CCAECEEAD054D220D6F0D880EE800E086D016E0873028702C280DA80DC60E6400A105F088210850195019B08B308C210D680E080E21010011101000003000F4062
:4018400014300F4031310F406A320F4053330F4009400F400B410F4002600F40821000000008F300C318000041040000003C00420F00F003F37F0C001C00E30008000000CE
:40188000046700180C3C0041FF0000041C1F2C200F00C040008028220000000426030400010C00E021FFFFFF62A0F0410C0000000000021204040404000000010000000019
:4018C00000004002001030100010101200000000000000000000000000000000030405060708090A0B0C0E0F101112131415161718191B1C1D1E1F20212223252627282915
:401900002A2B2E2F3031323334350000982F8A4291443771CFFBC0B5A5DBB5E95BC25639F111F159A4823F92D55E1CAB98AA07D8015B8312BE853124C37D0C55745DBE7224
:40194000FEB1DE80A706DC9B74F19BC1C1699BE48647BEEFC69DC10FCCA10C246F2CE92DAA84744ADCA9B05CDA88F97652513E986DC631A8C82703B0C77F59BFF30BE0C65A
:401980004791A7D55163CA0667292914850AB72738211B2EFC6D2C4D130D385354730A65BB0A6A762EC9C281852C7292A1E8BFA24B661AA8708B4BC2A3516CC719E892D12C
:4019C000240699D685350EF470A06A1016C1A419086C371E4C774827B5BCB034B30C1C394AAAD84E4FCA9C5BF36F2E68EE828F746F63A5781478C8840802C78CFAFFBE9010
:401A0000EB6C50A4F7A3F9BEF27871C667E6096A85AE67BB72F36E3C3AF54FA57F520E518C68059BABD9831F19CDE05B67E6096A85AE67BB72F36E3C3AF54FA57F520E51A0
:401A40008C68059BABD9831F19CDE05B43000000F8B5C046F8BC08BC9E4670474102000099050000F8B5C046F8BC08BC9E46704719020000881A0000C000002080000000BE
:401A8000600100000000000000000000010000000000E02EC05D00001800000000366E010404040000000000000000000000000000000000000000000000000000000000D0
:401AC000000000004C1A0000000000000000000000000000000000000000000000000000000000000000000000000000000000000000000000000000000000000000000080
:401B000000000000DC0000200000000000000000000000000000000000000000000000000000000000000000000000000000000000000000000000000000000000000000A9
:401B40000000000000000000000000000000000000000000000000000000000000000000000000000000000000000000000000000000000000000000000000000000000065
:401B80000000000000000000000000000000000000000000000000000000000000000000000000000000000000000000000000000000000000000000000000000000000025
:401BC00000000000000000000000000000000000000000000000000000000000000000000000000000000000000000000000000000000000000000000000000000000000E5
:401C000000000000000000000000000000000000000000000000000000000000000000000000000000000000000000000000000000000000000000000000000000000000A4
:0200000490303A
:0200000084304A
:0200000490402A
:200000000000000000000000000000000000000000000000000000000000000000000000E0
:0200000490501A
:0C000000000204C81193110104D095C344
:0200000490600A
:0100000001FE
:00000001FF